{
  "address": "0xEd7d03D0A5B1F156cD550940Db85c4a14F3d06dC",
  "abi": [
    {
      "inputs": [
        {
          "internalType": "address",
          "name": "priceFeedAddress",
          "type": "address"
        },
        {
          "internalType": "string",
          "name": "lowSvg",
          "type": "string"
        },
        {
          "internalType": "string",
          "name": "highSvg",
          "type": "string"
        }
      ],
      "stateMutability": "nonpayable",
      "type": "constructor"
    },
    {
      "anonymous": false,
      "inputs": [
        {
          "indexed": true,
          "internalType": "address",
          "name": "owner",
          "type": "address"
        },
        {
          "indexed": true,
          "internalType": "address",
          "name": "approved",
          "type": "address"
        },
        {
          "indexed": true,
          "internalType": "uint256",
          "name": "tokenId",
          "type": "uint256"
        }
      ],
      "name": "Approval",
      "type": "event"
    },
    {
      "anonymous": false,
      "inputs": [
        {
          "indexed": true,
          "internalType": "address",
          "name": "owner",
          "type": "address"
        },
        {
          "indexed": true,
          "internalType": "address",
          "name": "operator",
          "type": "address"
        },
        {
          "indexed": false,
          "internalType": "bool",
          "name": "approved",
          "type": "bool"
        }
      ],
      "name": "ApprovalForAll",
      "type": "event"
    },
    {
      "anonymous": false,
      "inputs": [
        {
          "indexed": false,
          "internalType": "uint256",
          "name": "_fromTokenId",
          "type": "uint256"
        },
        {
          "indexed": false,
          "internalType": "uint256",
          "name": "_toTokenId",
          "type": "uint256"
        }
      ],
      "name": "BatchMetadataUpdate",
      "type": "event"
    },
    {
      "anonymous": false,
      "inputs": [
        {
          "indexed": false,
          "internalType": "uint256",
          "name": "tokenId",
          "type": "uint256"
        },
        {
          "indexed": false,
          "internalType": "int256",
          "name": "highValue",
          "type": "int256"
        }
      ],
      "name": "CreatedNFT",
      "type": "event"
    },
    {
      "anonymous": false,
      "inputs": [
        {
          "indexed": false,
          "internalType": "uint256",
          "name": "_tokenId",
          "type": "uint256"
        }
      ],
      "name": "MetadataUpdate",
      "type": "event"
    },
    {
      "anonymous": false,
      "inputs": [
        {
          "indexed": true,
          "internalType": "address",
          "name": "previousOwner",
          "type": "address"
        },
        {
          "indexed": true,
          "internalType": "address",
          "name": "newOwner",
          "type": "address"
        }
      ],
      "name": "OwnershipTransferred",
      "type": "event"
    },
    {
      "anonymous": false,
      "inputs": [
        {
          "indexed": true,
          "internalType": "address",
          "name": "from",
          "type": "address"
        },
        {
          "indexed": true,
          "internalType": "address",
          "name": "to",
          "type": "address"
        },
        {
          "indexed": true,
          "internalType": "uint256",
          "name": "tokenId",
          "type": "uint256"
        }
      ],
      "name": "Transfer",
      "type": "event"
    },
    {
      "inputs": [
        {
          "internalType": "address",
          "name": "to",
          "type": "address"
        },
        {
          "internalType": "uint256",
          "name": "tokenId",
          "type": "uint256"
        }
      ],
      "name": "approve",
      "outputs": [],
      "stateMutability": "nonpayable",
      "type": "function"
    },
    {
      "inputs": [
        {
          "internalType": "address",
          "name": "owner",
          "type": "address"
        }
      ],
      "name": "balanceOf",
      "outputs": [
        {
          "internalType": "uint256",
          "name": "",
          "type": "uint256"
        }
      ],
      "stateMutability": "view",
      "type": "function"
    },
    {
      "inputs": [
        {
          "internalType": "uint256",
          "name": "tokenId",
          "type": "uint256"
        }
      ],
      "name": "getApproved",
      "outputs": [
        {
          "internalType": "address",
          "name": "",
          "type": "address"
        }
      ],
      "stateMutability": "view",
      "type": "function"
    },
    {
      "inputs": [
        {
          "internalType": "address",
          "name": "owner",
          "type": "address"
        },
        {
          "internalType": "address",
          "name": "operator",
          "type": "address"
        }
      ],
      "name": "isApprovedForAll",
      "outputs": [
        {
          "internalType": "bool",
          "name": "",
          "type": "bool"
        }
      ],
      "stateMutability": "view",
      "type": "function"
    },
    {
      "inputs": [
        {
          "internalType": "int256",
          "name": "highValue",
          "type": "int256"
        }
      ],
      "name": "mintNft",
      "outputs": [],
      "stateMutability": "nonpayable",
      "type": "function"
    },
    {
      "inputs": [],
      "name": "name",
      "outputs": [
        {
          "internalType": "string",
          "name": "",
          "type": "string"
        }
      ],
      "stateMutability": "view",
      "type": "function"
    },
    {
      "inputs": [],
      "name": "owner",
      "outputs": [
        {
          "internalType": "address",
          "name": "",
          "type": "address"
        }
      ],
      "stateMutability": "view",
      "type": "function"
    },
    {
      "inputs": [
        {
          "internalType": "uint256",
          "name": "tokenId",
          "type": "uint256"
        }
      ],
      "name": "ownerOf",
      "outputs": [
        {
          "internalType": "address",
          "name": "",
          "type": "address"
        }
      ],
      "stateMutability": "view",
      "type": "function"
    },
    {
      "inputs": [],
      "name": "renounceOwnership",
      "outputs": [],
      "stateMutability": "nonpayable",
      "type": "function"
    },
    {
      "inputs": [
        {
          "internalType": "uint256",
          "name": "",
          "type": "uint256"
        }
      ],
      "name": "s_tokenIdToHighValue",
      "outputs": [
        {
          "internalType": "int256",
          "name": "",
          "type": "int256"
        }
      ],
      "stateMutability": "view",
      "type": "function"
    },
    {
      "inputs": [
        {
          "internalType": "address",
          "name": "from",
          "type": "address"
        },
        {
          "internalType": "address",
          "name": "to",
          "type": "address"
        },
        {
          "internalType": "uint256",
          "name": "tokenId",
          "type": "uint256"
        }
      ],
      "name": "safeTransferFrom",
      "outputs": [],
      "stateMutability": "nonpayable",
      "type": "function"
    },
    {
      "inputs": [
        {
          "internalType": "address",
          "name": "from",
          "type": "address"
        },
        {
          "internalType": "address",
          "name": "to",
          "type": "address"
        },
        {
          "internalType": "uint256",
          "name": "tokenId",
          "type": "uint256"
        },
        {
          "internalType": "bytes",
          "name": "data",
          "type": "bytes"
        }
      ],
      "name": "safeTransferFrom",
      "outputs": [],
      "stateMutability": "nonpayable",
      "type": "function"
    },
    {
      "inputs": [
        {
          "internalType": "address",
          "name": "operator",
          "type": "address"
        },
        {
          "internalType": "bool",
          "name": "approved",
          "type": "bool"
        }
      ],
      "name": "setApprovalForAll",
      "outputs": [],
      "stateMutability": "nonpayable",
      "type": "function"
    },
    {
      "inputs": [
        {
          "internalType": "bytes4",
          "name": "interfaceId",
          "type": "bytes4"
        }
      ],
      "name": "supportsInterface",
      "outputs": [
        {
          "internalType": "bool",
          "name": "",
          "type": "bool"
        }
      ],
      "stateMutability": "view",
      "type": "function"
    },
    {
      "inputs": [
        {
          "internalType": "string",
          "name": "svg",
          "type": "string"
        }
      ],
      "name": "svgToImageURI",
      "outputs": [
        {
          "internalType": "string",
          "name": "",
          "type": "string"
        }
      ],
      "stateMutability": "pure",
      "type": "function"
    },
    {
      "inputs": [],
      "name": "symbol",
      "outputs": [
        {
          "internalType": "string",
          "name": "",
          "type": "string"
        }
      ],
      "stateMutability": "view",
      "type": "function"
    },
    {
      "inputs": [
        {
          "internalType": "uint256",
          "name": "tokenId",
          "type": "uint256"
        }
      ],
      "name": "tokenURI",
      "outputs": [
        {
          "internalType": "string",
          "name": "",
          "type": "string"
        }
      ],
      "stateMutability": "view",
      "type": "function"
    },
    {
      "inputs": [
        {
          "internalType": "address",
          "name": "from",
          "type": "address"
        },
        {
          "internalType": "address",
          "name": "to",
          "type": "address"
        },
        {
          "internalType": "uint256",
          "name": "tokenId",
          "type": "uint256"
        }
      ],
      "name": "transferFrom",
      "outputs": [],
      "stateMutability": "nonpayable",
      "type": "function"
    },
    {
      "inputs": [
        {
          "internalType": "address",
          "name": "newOwner",
          "type": "address"
        }
      ],
      "name": "transferOwnership",
      "outputs": [],
      "stateMutability": "nonpayable",
      "type": "function"
    }
  ],
  "transactionHash": "0xcd5555ebb14fbc2c758748a5bc39e9080653e940674630c5d9d39aeb18734eef",
  "args": [
    "0x694AA1769357215DE4FAC081bf1f309aDC325306",
    "<?xml version=\"1.0\" standalone=\"no\"?>\n<svg width=\"1024px\" height=\"1024px\" viewBox=\"0 0 1024 1024\" xmlns=\"http://www.w3.org/2000/svg\">\n  <path fill=\"#333\" d=\"M512 64C264.6 64 64 264.6 64 512s200.6 448 448 448 448-200.6 448-448S759.4 64 512 64zm0 820c-205.4 0-372-166.6-372-372s166.6-372 372-372 372 166.6 372 372-166.6 372-372 372z\"/>\n  <path fill=\"#E6E6E6\" d=\"M512 140c-205.4 0-372 166.6-372 372s166.6 372 372 372 372-166.6 372-372-166.6-372-372-372zM288 421a48.01 48.01 0 0 1 96 0 48.01 48.01 0 0 1-96 0zm376 272h-48.1c-4.2 0-7.8-3.2-8.1-7.4C604 636.1 562.5 597 512 597s-92.1 39.1-95.8 88.6c-.3 4.2-3.9 7.4-8.1 7.4H360a8 8 0 0 1-8-8.4c4.4-84.3 74.5-151.6 160-151.6s155.6 67.3 160 151.6a8 8 0 0 1-8 8.4zm24-224a48.01 48.01 0 0 1 0-96 48.01 48.01 0 0 1 0 96z\"/>\n  <path fill=\"#333\" d=\"M288 421a48 48 0 1 0 96 0 48 48 0 1 0-96 0zm224 112c-85.5 0-155.6 67.3-160 151.6a8 8 0 0 0 8 8.4h48.1c4.2 0 7.8-3.2 8.1-7.4 3.7-49.5 45.3-88.6 95.8-88.6s92 39.1 95.8 88.6c.3 4.2 3.9 7.4 8.1 7.4H664a8 8 0 0 0 8-8.4C667.6 600.3 597.5 533 512 533zm128-112a48 48 0 1 0 96 0 48 48 0 1 0-96 0z\"/>\n</svg>",
    "<svg viewBox=\"0 0 200 200\" width=\"400\"  height=\"400\" xmlns=\"http://www.w3.org/2000/svg\">\n  <circle cx=\"100\" cy=\"100\" fill=\"yellow\" r=\"78\" stroke=\"black\" stroke-width=\"3\"/>\n  <g class=\"eyes\">\n    <circle cx=\"61\" cy=\"82\" r=\"12\"/>\n    <circle cx=\"127\" cy=\"82\" r=\"12\"/>\n  </g>\n  <path d=\"m136.81 116.53c.69 26.17-64.11 42-81.52-.73\" style=\"fill:none; stroke: black; stroke-width: 3;\"/>\n</svg>"
  ],
  "numDeployments": 1,
  "solcInputHash": "38963175714b15d10272a25058ffd10f",
  "bytecode": "0x60a06040523480156200001157600080fd5b5060405162003e1e38038062003e1e833981810160405281019062000037919062000663565b6040518060400160405280600f81526020017f44796e616d696320537667204e667400000000000000000000000000000000008152506040518060400160405280600381526020017f44534e00000000000000000000000000000000000000000000000000000000008152508160009081620000b4919062000948565b508060019081620000c6919062000948565b505050620000e9620000dd6200017260201b60201c565b6200017a60201b60201c565b600060088190555062000102826200024060201b60201c565b6009908162000112919062000948565b5062000124816200024060201b60201c565b600a908162000134919062000948565b508273ffffffffffffffffffffffffffffffffffffffff1660808173ffffffffffffffffffffffffffffffffffffffff168152505050505062000bce565b600033905090565b6000600760009054906101000a900473ffffffffffffffffffffffffffffffffffffffff16905081600760006101000a81548173ffffffffffffffffffffffffffffffffffffffff021916908373ffffffffffffffffffffffffffffffffffffffff1602179055508173ffffffffffffffffffffffffffffffffffffffff168173ffffffffffffffffffffffffffffffffffffffff167f8be0079c531659141344cd1fd0a4f28419497f9722a3daafe3b4186f6b6457e060405160405180910390a35050565b606060006200027b836040516020016200025b919062000a71565b604051602081830303815290604052620002de60201b62000ddd1760201c565b90506040518060400160405280601a81526020017f646174613a696d6167652f7376672b786d6c3b6261736536342c00000000000081525081604051602001620002c792919062000a8a565b604051602081830303815290604052915050919050565b60606000825103620003025760405180602001604052806000815250905062000466565b600060405180606001604052806040815260200162003dde604091399050600060036002855162000334919062000ae1565b62000340919062000b4b565b60046200034e919062000b83565b9050600060208262000361919062000ae1565b67ffffffffffffffff8111156200037d576200037c620004ff565b5b6040519080825280601f01601f191660200182016040528015620003b05781602001600182028036833780820191505090505b509050818152600183018586518101602084015b8183101562000421576003830192508251603f8160121c168501518253600182019150603f81600c1c168501518253600182019150603f8160061c168501518253600182019150603f8116850151825360018201915050620003c4565b6003895106600181146200043e57600281146200044f576200045a565b613d3d60f01b60028303526200045a565b603d60f81b60018303525b50505050508093505050505b919050565b6000604051905090565b600080fd5b600080fd5b600073ffffffffffffffffffffffffffffffffffffffff82169050919050565b6000620004ac826200047f565b9050919050565b620004be816200049f565b8114620004ca57600080fd5b50565b600081519050620004de81620004b3565b92915050565b600080fd5b600080fd5b6000601f19601f8301169050919050565b7f4e487b7100000000000000000000000000000000000000000000000000000000600052604160045260246000fd5b6200053982620004ee565b810181811067ffffffffffffffff821117156200055b576200055a620004ff565b5b80604052505050565b6000620005706200046b565b90506200057e82826200052e565b919050565b600067ffffffffffffffff821115620005a157620005a0620004ff565b5b620005ac82620004ee565b9050602081019050919050565b60005b83811015620005d9578082015181840152602081019050620005bc565b60008484015250505050565b6000620005fc620005f68462000583565b62000564565b9050828152602081018484840111156200061b576200061a620004e9565b5b62000628848285620005b9565b509392505050565b600082601f830112620006485762000647620004e4565b5b81516200065a848260208601620005e5565b91505092915050565b6000806000606084860312156200067f576200067e62000475565b5b60006200068f86828701620004cd565b935050602084015167ffffffffffffffff811115620006b357620006b26200047a565b5b620006c18682870162000630565b925050604084015167ffffffffffffffff811115620006e557620006e46200047a565b5b620006f38682870162000630565b9150509250925092565b600081519050919050565b7f4e487b7100000000000000000000000000000000000000000000000000000000600052602260045260246000fd5b600060028204905060018216806200075057607f821691505b60208210810362000766576200076562000708565b5b50919050565b60008190508160005260206000209050919050565b60006020601f8301049050919050565b600082821b905092915050565b600060088302620007d07fffffffffffffffffffffffffffffffffffffffffffffffffffffffffffffffff8262000791565b620007dc868362000791565b95508019841693508086168417925050509392505050565b6000819050919050565b6000819050919050565b600062000829620008236200081d84620007f4565b620007fe565b620007f4565b9050919050565b6000819050919050565b620008458362000808565b6200085d620008548262000830565b8484546200079e565b825550505050565b600090565b6200087462000865565b620008818184846200083a565b505050565b5b81811015620008a9576200089d6000826200086a565b60018101905062000887565b5050565b601f821115620008f857620008c2816200076c565b620008cd8462000781565b81016020851015620008dd578190505b620008f5620008ec8562000781565b83018262000886565b50505b505050565b600082821c905092915050565b60006200091d60001984600802620008fd565b1980831691505092915050565b60006200093883836200090a565b9150826002028217905092915050565b6200095382620006fd565b67ffffffffffffffff8111156200096f576200096e620004ff565b5b6200097b825462000737565b62000988828285620008ad565b600060209050601f831160018114620009c05760008415620009ab578287015190505b620009b785826200092a565b86555062000a27565b601f198416620009d0866200076c565b60005b82811015620009fa57848901518255600182019150602085019450602081019050620009d3565b8683101562000a1a578489015162000a16601f8916826200090a565b8355505b6001600288020188555050505b505050505050565b600081905092915050565b600062000a4782620006fd565b62000a53818562000a2f565b935062000a65818560208601620005b9565b80840191505092915050565b600062000a7f828462000a3a565b915081905092915050565b600062000a98828562000a3a565b915062000aa6828462000a3a565b91508190509392505050565b7f4e487b7100000000000000000000000000000000000000000000000000000000600052601160045260246000fd5b600062000aee82620007f4565b915062000afb83620007f4565b925082820190508082111562000b165762000b1562000ab2565b5b92915050565b7f4e487b7100000000000000000000000000000000000000000000000000000000600052601260045260246000fd5b600062000b5882620007f4565b915062000b6583620007f4565b92508262000b785762000b7762000b1c565b5b828204905092915050565b600062000b9082620007f4565b915062000b9d83620007f4565b925082820262000bad81620007f4565b9150828204841483151762000bc75762000bc662000ab2565b5b5092915050565b6080516131f462000bea6000396000610a7c01526131f46000f3fe608060405234801561001057600080fd5b50600436106101215760003560e01c806370a08231116100ad578063b88d4fde11610071578063b88d4fde14610306578063c87b56dd14610322578063e425aded14610352578063e985e9c514610382578063f2fde38b146103b257610121565b806370a0823114610274578063715018a6146102a45780638da5cb5b146102ae57806395d89b41146102cc578063a22cb465146102ea57610121565b80631e930812116100f45780631e930812146101c057806323b872dd146101dc57806330d871c6146101f857806342842e0e146102285780636352211e1461024457610121565b806301ffc9a71461012657806306fdde0314610156578063081812fc14610174578063095ea7b3146101a4575b600080fd5b610140600480360381019061013b9190611dba565b6103ce565b60405161014d9190611e02565b60405180910390f35b61015e61042f565b60405161016b9190611ead565b60405180910390f35b61018e60048036038101906101899190611f05565b6104c1565b60405161019b9190611f73565b60405180910390f35b6101be60048036038101906101b99190611fba565b610507565b005b6101da60048036038101906101d59190612030565b61061e565b005b6101f660048036038101906101f1919061205d565b61069c565b005b610212600480360381019061020d91906121e5565b6106fc565b60405161021f9190611ead565b60405180910390f35b610242600480360381019061023d919061205d565b610789565b005b61025e60048036038101906102599190611f05565b6107a9565b60405161026b9190611f73565b60405180910390f35b61028e6004803603810190610289919061222e565b61082f565b60405161029b919061226a565b60405180910390f35b6102ac6108e6565b005b6102b66108fa565b6040516102c39190611f73565b60405180910390f35b6102d4610924565b6040516102e19190611ead565b60405180910390f35b61030460048036038101906102ff91906122b1565b6109b6565b005b610320600480360381019061031b9190612392565b6109cc565b005b61033c60048036038101906103379190611f05565b610a2e565b6040516103499190611ead565b60405180910390f35b61036c60048036038101906103679190611f05565b610cae565b6040516103799190612424565b60405180910390f35b61039c6004803603810190610397919061243f565b610cc6565b6040516103a99190611e02565b60405180910390f35b6103cc60048036038101906103c7919061222e565b610d5a565b005b6000634906490660e01b7bffffffffffffffffffffffffffffffffffffffffffffffffffffffff1916827bffffffffffffffffffffffffffffffffffffffffffffffffffffffff19161480610428575061042782610f55565b5b9050919050565b60606000805461043e906124ae565b80601f016020809104026020016040519081016040528092919081815260200182805461046a906124ae565b80156104b75780601f1061048c576101008083540402835291602001916104b7565b820191906000526020600020905b81548152906001019060200180831161049a57829003601f168201915b5050505050905090565b60006104cc82611037565b6004600083815260200190815260200160002060009054906101000a900473ffffffffffffffffffffffffffffffffffffffff169050919050565b6000610512826107a9565b90508073ffffffffffffffffffffffffffffffffffffffff168373ffffffffffffffffffffffffffffffffffffffff1603610582576040517f08c379a000000000000000000000000000000000000000000000000000000000815260040161057990612551565b60405180910390fd5b8073ffffffffffffffffffffffffffffffffffffffff166105a1611082565b73ffffffffffffffffffffffffffffffffffffffff1614806105d057506105cf816105ca611082565b610cc6565b5b61060f576040517f08c379a0000000000000000000000000000000000000000000000000000000008152600401610606906125e3565b60405180910390fd5b610619838361108a565b505050565b80600b600060085481526020019081526020016000208190555061064433600854611143565b6001600860008282546106579190612632565b925050819055507f882d3b5a729a8bb95cf6c0083c99b42ecd9637123d4425bd7b768877fd8af8b060085482604051610691929190612666565b60405180910390a150565b6106ad6106a7611082565b82611161565b6106ec576040517f08c379a00000000000000000000000000000000000000000000000000000000081526004016106e390612701565b60405180910390fd5b6106f78383836111f6565b505050565b6060600061072883604051602001610714919061275d565b604051602081830303815290604052610ddd565b90506040518060400160405280601a81526020017f646174613a696d6167652f7376672b786d6c3b6261736536342c00000000000081525081604051602001610772929190612774565b604051602081830303815290604052915050919050565b6107a4838383604051806020016040528060008152506109cc565b505050565b6000806107b5836114ef565b9050600073ffffffffffffffffffffffffffffffffffffffff168173ffffffffffffffffffffffffffffffffffffffff1603610826576040517f08c379a000000000000000000000000000000000000000000000000000000000815260040161081d906127e4565b60405180910390fd5b80915050919050565b60008073ffffffffffffffffffffffffffffffffffffffff168273ffffffffffffffffffffffffffffffffffffffff160361089f576040517f08c379a000000000000000000000000000000000000000000000000000000000815260040161089690612876565b60405180910390fd5b600360008373ffffffffffffffffffffffffffffffffffffffff1673ffffffffffffffffffffffffffffffffffffffff168152602001908152602001600020549050919050565b6108ee61152c565b6108f860006115aa565b565b6000600760009054906101000a900473ffffffffffffffffffffffffffffffffffffffff16905090565b606060018054610933906124ae565b80601f016020809104026020016040519081016040528092919081815260200182805461095f906124ae565b80156109ac5780601f10610981576101008083540402835291602001916109ac565b820191906000526020600020905b81548152906001019060200180831161098f57829003601f168201915b5050505050905090565b6109c86109c1611082565b8383611670565b5050565b6109dd6109d7611082565b83611161565b610a1c576040517f08c379a0000000000000000000000000000000000000000000000000000000008152600401610a1390612701565b60405180910390fd5b610a28848484846117dc565b50505050565b6060610a3982611838565b610a78576040517f08c379a0000000000000000000000000000000000000000000000000000000008152600401610a6f906128e2565b60405180910390fd5b60007f000000000000000000000000000000000000000000000000000000000000000073ffffffffffffffffffffffffffffffffffffffff1663feaf968c6040518163ffffffff1660e01b815260040160a060405180830381865afa158015610ae5573d6000803e3d6000fd5b505050506040513d601f19601f82011682018060405250810190610b09919061296e565b505050915050600060098054610b1e906124ae565b80601f0160208091040260200160405190810160405280929190818152602001828054610b4a906124ae565b8015610b975780601f10610b6c57610100808354040283529160200191610b97565b820191906000526020600020905b815481529060010190602001808311610b7a57829003601f168201915b50505050509050600b6000858152602001908152602001600020548212610c4657600a8054610bc5906124ae565b80601f0160208091040260200160405190810160405280929190818152602001828054610bf1906124ae565b8015610c3e5780601f10610c1357610100808354040283529160200191610c3e565b820191906000526020600020905b815481529060010190602001808311610c2157829003601f168201915b505050505090505b6000610c50611879565b610c81610c5b61042f565b84604051602001610c6d929190612bb1565b604051602081830303815290604052610ddd565b604051602001610c92929190612774565b6040516020818303038152906040529050809350505050919050565b600b6020528060005260406000206000915090505481565b6000600560008473ffffffffffffffffffffffffffffffffffffffff1673ffffffffffffffffffffffffffffffffffffffff16815260200190815260200160002060008373ffffffffffffffffffffffffffffffffffffffff1673ffffffffffffffffffffffffffffffffffffffff16815260200190815260200160002060009054906101000a900460ff16905092915050565b610d6261152c565b600073ffffffffffffffffffffffffffffffffffffffff168173ffffffffffffffffffffffffffffffffffffffff1603610dd1576040517f08c379a0000000000000000000000000000000000000000000000000000000008152600401610dc890612c73565b60405180910390fd5b610dda816115aa565b50565b60606000825103610dff57604051806020016040528060008152509050610f50565b600060405180606001604052806040815260200161317f6040913990506000600360028551610e2e9190612632565b610e389190612cc2565b6004610e449190612cf3565b90506000602082610e559190612632565b67ffffffffffffffff811115610e6e57610e6d6120ba565b5b6040519080825280601f01601f191660200182016040528015610ea05781602001600182028036833780820191505090505b509050818152600183018586518101602084015b81831015610f0f576003830192508251603f8160121c168501518253600182019150603f81600c1c168501518253600182019150603f8160061c168501518253600182019150603f8116850151825360018201915050610eb4565b600389510660018114610f295760028114610f3957610f44565b613d3d60f01b6002830352610f44565b603d60f81b60018303525b50505050508093505050505b919050565b60007f80ac58cd000000000000000000000000000000000000000000000000000000007bffffffffffffffffffffffffffffffffffffffffffffffffffffffff1916827bffffffffffffffffffffffffffffffffffffffffffffffffffffffff1916148061102057507f5b5e139f000000000000000000000000000000000000000000000000000000007bffffffffffffffffffffffffffffffffffffffffffffffffffffffff1916827bffffffffffffffffffffffffffffffffffffffffffffffffffffffff1916145b80611030575061102f826118b6565b5b9050919050565b61104081611838565b61107f576040517f08c379a0000000000000000000000000000000000000000000000000000000008152600401611076906127e4565b60405180910390fd5b50565b600033905090565b816004600083815260200190815260200160002060006101000a81548173ffffffffffffffffffffffffffffffffffffffff021916908373ffffffffffffffffffffffffffffffffffffffff160217905550808273ffffffffffffffffffffffffffffffffffffffff166110fd836107a9565b73ffffffffffffffffffffffffffffffffffffffff167f8c5be1e5ebec7d5bd14f71427d1e84f3dd0314c0f7b2291e5b200ac8c7c3b92560405160405180910390a45050565b61115d828260405180602001604052806000815250611920565b5050565b60008061116d836107a9565b90508073ffffffffffffffffffffffffffffffffffffffff168473ffffffffffffffffffffffffffffffffffffffff1614806111af57506111ae8185610cc6565b5b806111ed57508373ffffffffffffffffffffffffffffffffffffffff166111d5846104c1565b73ffffffffffffffffffffffffffffffffffffffff16145b91505092915050565b8273ffffffffffffffffffffffffffffffffffffffff16611216826107a9565b73ffffffffffffffffffffffffffffffffffffffff161461126c576040517f08c379a000000000000000000000000000000000000000000000000000000000815260040161126390612da7565b60405180910390fd5b600073ffffffffffffffffffffffffffffffffffffffff168273ffffffffffffffffffffffffffffffffffffffff16036112db576040517f08c379a00000000000000000000000000000000000000000000000000000000081526004016112d290612e39565b60405180910390fd5b6112e8838383600161197b565b8273ffffffffffffffffffffffffffffffffffffffff16611308826107a9565b73ffffffffffffffffffffffffffffffffffffffff161461135e576040517f08c379a000000000000000000000000000000000000000000000000000000000815260040161135590612da7565b60405180910390fd5b6004600082815260200190815260200160002060006101000a81549073ffffffffffffffffffffffffffffffffffffffff02191690556001600360008573ffffffffffffffffffffffffffffffffffffffff1673ffffffffffffffffffffffffffffffffffffffff168152602001908152602001600020600082825403925050819055506001600360008473ffffffffffffffffffffffffffffffffffffffff1673ffffffffffffffffffffffffffffffffffffffff16815260200190815260200160002060008282540192505081905550816002600083815260200190815260200160002060006101000a81548173ffffffffffffffffffffffffffffffffffffffff021916908373ffffffffffffffffffffffffffffffffffffffff160217905550808273ffffffffffffffffffffffffffffffffffffffff168473ffffffffffffffffffffffffffffffffffffffff167fddf252ad1be2c89b69c2b068fc378daa952ba7f163c4a11628f55a4df523b3ef60405160405180910390a46114ea8383836001611981565b505050565b60006002600083815260200190815260200160002060009054906101000a900473ffffffffffffffffffffffffffffffffffffffff169050919050565b611534611082565b73ffffffffffffffffffffffffffffffffffffffff166115526108fa565b73ffffffffffffffffffffffffffffffffffffffff16146115a8576040517f08c379a000000000000000000000000000000000000000000000000000000000815260040161159f90612ea5565b60405180910390fd5b565b6000600760009054906101000a900473ffffffffffffffffffffffffffffffffffffffff16905081600760006101000a81548173ffffffffffffffffffffffffffffffffffffffff021916908373ffffffffffffffffffffffffffffffffffffffff1602179055508173ffffffffffffffffffffffffffffffffffffffff168173ffffffffffffffffffffffffffffffffffffffff167f8be0079c531659141344cd1fd0a4f28419497f9722a3daafe3b4186f6b6457e060405160405180910390a35050565b8173ffffffffffffffffffffffffffffffffffffffff168373ffffffffffffffffffffffffffffffffffffffff16036116de576040517f08c379a00000000000000000000000000000000000000000000000000000000081526004016116d590612f11565b60405180910390fd5b80600560008573ffffffffffffffffffffffffffffffffffffffff1673ffffffffffffffffffffffffffffffffffffffff16815260200190815260200160002060008473ffffffffffffffffffffffffffffffffffffffff1673ffffffffffffffffffffffffffffffffffffffff16815260200190815260200160002060006101000a81548160ff0219169083151502179055508173ffffffffffffffffffffffffffffffffffffffff168373ffffffffffffffffffffffffffffffffffffffff167f17307eab39ab6107e8899845ad3d59bd9653f200f220920489ca2b5937696c31836040516117cf9190611e02565b60405180910390a3505050565b6117e78484846111f6565b6117f384848484611987565b611832576040517f08c379a000000000000000000000000000000000000000000000000000000000815260040161182990612fa3565b60405180910390fd5b50505050565b60008073ffffffffffffffffffffffffffffffffffffffff1661185a836114ef565b73ffffffffffffffffffffffffffffffffffffffff1614159050919050565b60606040518060400160405280601d81526020017f646174613a6170706c69636174696f6e2f6a736f6e3b6261736536342c000000815250905090565b60007f01ffc9a7000000000000000000000000000000000000000000000000000000007bffffffffffffffffffffffffffffffffffffffffffffffffffffffff1916827bffffffffffffffffffffffffffffffffffffffffffffffffffffffff1916149050919050565b61192a8383611b0e565b6119376000848484611987565b611976576040517f08c379a000000000000000000000000000000000000000000000000000000000815260040161196d90612fa3565b60405180910390fd5b505050565b50505050565b50505050565b60006119a88473ffffffffffffffffffffffffffffffffffffffff16611d2b565b15611b01578373ffffffffffffffffffffffffffffffffffffffff1663150b7a026119d1611082565b8786866040518563ffffffff1660e01b81526004016119f39493929190613018565b6020604051808303816000875af1925050508015611a2f57506040513d601f19601f82011682018060405250810190611a2c9190613079565b60015b611ab1573d8060008114611a5f576040519150601f19603f3d011682016040523d82523d6000602084013e611a64565b606091505b506000815103611aa9576040517f08c379a0000000000000000000000000000000000000000000000000000000008152600401611aa090612fa3565b60405180910390fd5b805181602001fd5b63150b7a0260e01b7bffffffffffffffffffffffffffffffffffffffffffffffffffffffff1916817bffffffffffffffffffffffffffffffffffffffffffffffffffffffff191614915050611b06565b600190505b949350505050565b600073ffffffffffffffffffffffffffffffffffffffff168273ffffffffffffffffffffffffffffffffffffffff1603611b7d576040517f08c379a0000000000000000000000000000000000000000000000000000000008152600401611b74906130f2565b60405180910390fd5b611b8681611838565b15611bc6576040517f08c379a0000000000000000000000000000000000000000000000000000000008152600401611bbd9061315e565b60405180910390fd5b611bd460008383600161197b565b611bdd81611838565b15611c1d576040517f08c379a0000000000000000000000000000000000000000000000000000000008152600401611c149061315e565b60405180910390fd5b6001600360008473ffffffffffffffffffffffffffffffffffffffff1673ffffffffffffffffffffffffffffffffffffffff16815260200190815260200160002060008282540192505081905550816002600083815260200190815260200160002060006101000a81548173ffffffffffffffffffffffffffffffffffffffff021916908373ffffffffffffffffffffffffffffffffffffffff160217905550808273ffffffffffffffffffffffffffffffffffffffff16600073ffffffffffffffffffffffffffffffffffffffff167fddf252ad1be2c89b69c2b068fc378daa952ba7f163c4a11628f55a4df523b3ef60405160405180910390a4611d27600083836001611981565b5050565b6000808273ffffffffffffffffffffffffffffffffffffffff163b119050919050565b6000604051905090565b600080fd5b600080fd5b60007fffffffff0000000000000000000000000000000000000000000000000000000082169050919050565b611d9781611d62565b8114611da257600080fd5b50565b600081359050611db481611d8e565b92915050565b600060208284031215611dd057611dcf611d58565b5b6000611dde84828501611da5565b91505092915050565b60008115159050919050565b611dfc81611de7565b82525050565b6000602082019050611e176000830184611df3565b92915050565b600081519050919050565b600082825260208201905092915050565b60005b83811015611e57578082015181840152602081019050611e3c565b60008484015250505050565b6000601f19601f8301169050919050565b6000611e7f82611e1d565b611e898185611e28565b9350611e99818560208601611e39565b611ea281611e63565b840191505092915050565b60006020820190508181036000830152611ec78184611e74565b905092915050565b6000819050919050565b611ee281611ecf565b8114611eed57600080fd5b50565b600081359050611eff81611ed9565b92915050565b600060208284031215611f1b57611f1a611d58565b5b6000611f2984828501611ef0565b91505092915050565b600073ffffffffffffffffffffffffffffffffffffffff82169050919050565b6000611f5d82611f32565b9050919050565b611f6d81611f52565b82525050565b6000602082019050611f886000830184611f64565b92915050565b611f9781611f52565b8114611fa257600080fd5b50565b600081359050611fb481611f8e565b92915050565b60008060408385031215611fd157611fd0611d58565b5b6000611fdf85828601611fa5565b9250506020611ff085828601611ef0565b9150509250929050565b6000819050919050565b61200d81611ffa565b811461201857600080fd5b50565b60008135905061202a81612004565b92915050565b60006020828403121561204657612045611d58565b5b60006120548482850161201b565b91505092915050565b60008060006060848603121561207657612075611d58565b5b600061208486828701611fa5565b935050602061209586828701611fa5565b92505060406120a686828701611ef0565b9150509250925092565b600080fd5b600080fd5b7f4e487b7100000000000000000000000000000000000000000000000000000000600052604160045260246000fd5b6120f282611e63565b810181811067ffffffffffffffff82111715612111576121106120ba565b5b80604052505050565b6000612124611d4e565b905061213082826120e9565b919050565b600067ffffffffffffffff8211156121505761214f6120ba565b5b61215982611e63565b9050602081019050919050565b82818337600083830152505050565b600061218861218384612135565b61211a565b9050828152602081018484840111156121a4576121a36120b5565b5b6121af848285612166565b509392505050565b600082601f8301126121cc576121cb6120b0565b5b81356121dc848260208601612175565b91505092915050565b6000602082840312156121fb576121fa611d58565b5b600082013567ffffffffffffffff81111561221957612218611d5d565b5b612225848285016121b7565b91505092915050565b60006020828403121561224457612243611d58565b5b600061225284828501611fa5565b91505092915050565b61226481611ecf565b82525050565b600060208201905061227f600083018461225b565b92915050565b61228e81611de7565b811461229957600080fd5b50565b6000813590506122ab81612285565b92915050565b600080604083850312156122c8576122c7611d58565b5b60006122d685828601611fa5565b92505060206122e78582860161229c565b9150509250929050565b600067ffffffffffffffff82111561230c5761230b6120ba565b5b61231582611e63565b9050602081019050919050565b6000612335612330846122f1565b61211a565b905082815260208101848484011115612351576123506120b5565b5b61235c848285612166565b509392505050565b600082601f830112612379576123786120b0565b5b8135612389848260208601612322565b91505092915050565b600080600080608085870312156123ac576123ab611d58565b5b60006123ba87828801611fa5565b94505060206123cb87828801611fa5565b93505060406123dc87828801611ef0565b925050606085013567ffffffffffffffff8111156123fd576123fc611d5d565b5b61240987828801612364565b91505092959194509250565b61241e81611ffa565b82525050565b60006020820190506124396000830184612415565b92915050565b6000806040838503121561245657612455611d58565b5b600061246485828601611fa5565b925050602061247585828601611fa5565b9150509250929050565b7f4e487b7100000000000000000000000000000000000000000000000000000000600052602260045260246000fd5b600060028204905060018216806124c657607f821691505b6020821081036124d9576124d861247f565b5b50919050565b7f4552433732313a20617070726f76616c20746f2063757272656e74206f776e6560008201527f7200000000000000000000000000000000000000000000000000000000000000602082015250565b600061253b602183611e28565b9150612546826124df565b604082019050919050565b6000602082019050818103600083015261256a8161252e565b9050919050565b7f4552433732313a20617070726f76652063616c6c6572206973206e6f7420746f60008201527f6b656e206f776e6572206f7220617070726f76656420666f7220616c6c000000602082015250565b60006125cd603d83611e28565b91506125d882612571565b604082019050919050565b600060208201905081810360008301526125fc816125c0565b9050919050565b7f4e487b7100000000000000000000000000000000000000000000000000000000600052601160045260246000fd5b600061263d82611ecf565b915061264883611ecf565b92508282019050808211156126605761265f612603565b5b92915050565b600060408201905061267b600083018561225b565b6126886020830184612415565b9392505050565b7f4552433732313a2063616c6c6572206973206e6f7420746f6b656e206f776e6560008201527f72206f7220617070726f76656400000000000000000000000000000000000000602082015250565b60006126eb602d83611e28565b91506126f68261268f565b604082019050919050565b6000602082019050818103600083015261271a816126de565b9050919050565b600081905092915050565b600061273782611e1d565b6127418185612721565b9350612751818560208601611e39565b80840191505092915050565b6000612769828461272c565b915081905092915050565b6000612780828561272c565b915061278c828461272c565b91508190509392505050565b7f4552433732313a20696e76616c696420746f6b656e2049440000000000000000600082015250565b60006127ce601883611e28565b91506127d982612798565b602082019050919050565b600060208201905081810360008301526127fd816127c1565b9050919050565b7f4552433732313a2061646472657373207a65726f206973206e6f74206120766160008201527f6c6964206f776e65720000000000000000000000000000000000000000000000602082015250565b6000612860602983611e28565b915061286b82612804565b604082019050919050565b6000602082019050818103600083015261288f81612853565b9050919050565b7f55524920717565727920666f72206e6f6e2d657869737420746f6b656e000000600082015250565b60006128cc601d83611e28565b91506128d782612896565b602082019050919050565b600060208201905081810360008301526128fb816128bf565b9050919050565b600069ffffffffffffffffffff82169050919050565b61292181612902565b811461292c57600080fd5b50565b60008151905061293e81612918565b92915050565b60008151905061295381612004565b92915050565b60008151905061296881611ed9565b92915050565b600080600080600060a0868803121561298a57612989611d58565b5b60006129988882890161292f565b95505060206129a988828901612944565b94505060406129ba88828901612959565b93505060606129cb88828901612959565b92505060806129dc8882890161292f565b9150509295509295909350565b7f7b226e616d65223a200000000000000000000000000000000000000000000000600082015250565b6000612a1f600983612721565b9150612a2a826129e9565b600982019050919050565b7f222c20226465736372697074696f6e223a2022416e204e46542074686174206360008201527f68616e676573206261736564206f6e2074686520436861696e4c696e6b20466560208201527f656473222c000000000000000000000000000000000000000000000000000000604082015250565b6000612ab7604583612721565b9150612ac282612a35565b604582019050919050565b7f2261747472696275746573223a205b7b2274726169745f74797065223a20226360008201527f6f6f6c6e657373222c202276616c7565223a203130307d5d2c2022696d61676560208201527f223a202200000000000000000000000000000000000000000000000000000000604082015250565b6000612b4f604483612721565b9150612b5a82612acd565b604482019050919050565b7f227d000000000000000000000000000000000000000000000000000000000000600082015250565b6000612b9b600283612721565b9150612ba682612b65565b600282019050919050565b6000612bbc82612a12565b9150612bc8828561272c565b9150612bd382612aaa565b9150612bde82612b42565b9150612bea828461272c565b9150612bf582612b8e565b91508190509392505050565b7f4f776e61626c653a206e6577206f776e657220697320746865207a65726f206160008201527f6464726573730000000000000000000000000000000000000000000000000000602082015250565b6000612c5d602683611e28565b9150612c6882612c01565b604082019050919050565b60006020820190508181036000830152612c8c81612c50565b9050919050565b7f4e487b7100000000000000000000000000000000000000000000000000000000600052601260045260246000fd5b6000612ccd82611ecf565b9150612cd883611ecf565b925082612ce857612ce7612c93565b5b828204905092915050565b6000612cfe82611ecf565b9150612d0983611ecf565b9250828202612d1781611ecf565b91508282048414831517612d2e57612d2d612603565b5b5092915050565b7f4552433732313a207472616e736665722066726f6d20696e636f72726563742060008201527f6f776e6572000000000000000000000000000000000000000000000000000000602082015250565b6000612d91602583611e28565b9150612d9c82612d35565b604082019050919050565b60006020820190508181036000830152612dc081612d84565b9050919050565b7f4552433732313a207472616e7366657220746f20746865207a65726f2061646460008201527f7265737300000000000000000000000000000000000000000000000000000000602082015250565b6000612e23602483611e28565b9150612e2e82612dc7565b604082019050919050565b60006020820190508181036000830152612e5281612e16565b9050919050565b7f4f776e61626c653a2063616c6c6572206973206e6f7420746865206f776e6572600082015250565b6000612e8f602083611e28565b9150612e9a82612e59565b602082019050919050565b60006020820190508181036000830152612ebe81612e82565b9050919050565b7f4552433732313a20617070726f766520746f2063616c6c657200000000000000600082015250565b6000612efb601983611e28565b9150612f0682612ec5565b602082019050919050565b60006020820190508181036000830152612f2a81612eee565b9050919050565b7f4552433732313a207472616e7366657220746f206e6f6e20455243373231526560008201527f63656976657220696d706c656d656e7465720000000000000000000000000000602082015250565b6000612f8d603283611e28565b9150612f9882612f31565b604082019050919050565b60006020820190508181036000830152612fbc81612f80565b9050919050565b600081519050919050565b600082825260208201905092915050565b6000612fea82612fc3565b612ff48185612fce565b9350613004818560208601611e39565b61300d81611e63565b840191505092915050565b600060808201905061302d6000830187611f64565b61303a6020830186611f64565b613047604083018561225b565b81810360608301526130598184612fdf565b905095945050505050565b60008151905061307381611d8e565b92915050565b60006020828403121561308f5761308e611d58565b5b600061309d84828501613064565b91505092915050565b7f4552433732313a206d696e7420746f20746865207a65726f2061646472657373600082015250565b60006130dc602083611e28565b91506130e7826130a6565b602082019050919050565b6000602082019050818103600083015261310b816130cf565b9050919050565b7f4552433732313a20746f6b656e20616c7265616479206d696e74656400000000600082015250565b6000613148601c83611e28565b915061315382613112565b602082019050919050565b600060208201905081810360008301526131778161313b565b905091905056fe4142434445464748494a4b4c4d4e4f505152535455565758595a6162636465666768696a6b6c6d6e6f707172737475767778797a303132333435363738392b2fa2646970667358221220250a596b387b9cb0a817ddec5f9888c9560ece681343c09b4f1b98938bd757d964736f6c634300081200334142434445464748494a4b4c4d4e4f505152535455565758595a6162636465666768696a6b6c6d6e6f707172737475767778797a303132333435363738392b2f",
  "devdoc": {
    "events": {
      "Approval(address,address,uint256)": {
        "details": "Emitted when `owner` enables `approved` to manage the `tokenId` token."
      },
      "ApprovalForAll(address,address,bool)": {
        "details": "Emitted when `owner` enables or disables (`approved`) `operator` to manage all of its assets."
      },
      "BatchMetadataUpdate(uint256,uint256)": {
        "details": "This event emits when the metadata of a range of tokens is changed. So that the third-party platforms such as NFT market could timely update the images and related attributes of the NFTs."
      },
      "MetadataUpdate(uint256)": {
        "details": "This event emits when the metadata of a token is changed. So that the third-party platforms such as NFT market could timely update the images and related attributes of the NFT."
      },
      "Transfer(address,address,uint256)": {
        "details": "Emitted when `tokenId` token is transferred from `from` to `to`."
      }
    },
    "kind": "dev",
    "methods": {
      "approve(address,uint256)": {
        "details": "See {IERC721-approve}."
      },
      "balanceOf(address)": {
        "details": "See {IERC721-balanceOf}."
      },
      "getApproved(uint256)": {
        "details": "See {IERC721-getApproved}."
      },
      "isApprovedForAll(address,address)": {
        "details": "See {IERC721-isApprovedForAll}."
      },
      "name()": {
        "details": "See {IERC721Metadata-name}."
      },
      "owner()": {
        "details": "Returns the address of the current owner."
      },
      "ownerOf(uint256)": {
        "details": "See {IERC721-ownerOf}."
      },
      "renounceOwnership()": {
        "details": "Leaves the contract without owner. It will not be possible to call `onlyOwner` functions. Can only be called by the current owner. NOTE: Renouncing ownership will leave the contract without an owner, thereby disabling any functionality that is only available to the owner."
      },
      "safeTransferFrom(address,address,uint256)": {
        "details": "See {IERC721-safeTransferFrom}."
      },
      "safeTransferFrom(address,address,uint256,bytes)": {
        "details": "See {IERC721-safeTransferFrom}."
      },
      "setApprovalForAll(address,bool)": {
        "details": "See {IERC721-setApprovalForAll}."
      },
      "supportsInterface(bytes4)": {
        "details": "See {IERC165-supportsInterface}"
      },
      "symbol()": {
        "details": "See {IERC721Metadata-symbol}."
      },
      "tokenURI(uint256)": {
        "details": "See {IERC721Metadata-tokenURI}."
      },
      "transferFrom(address,address,uint256)": {
        "details": "See {IERC721-transferFrom}."
      },
      "transferOwnership(address)": {
        "details": "Transfers ownership of the contract to a new account (`newOwner`). Can only be called by the current owner."
      }
    },
    "version": 1
  },
  "userdoc": {
    "kind": "user",
    "methods": {},
    "version": 1
  },
  "storageLayout": {
    "storage": [
      {
        "astId": 1033,
        "contract": "contracts/DynamicSvgNft.sol:DynamicSvgNft",
        "label": "_name",
        "offset": 0,
        "slot": "0",
        "type": "t_string_storage"
      },
      {
        "astId": 1035,
        "contract": "contracts/DynamicSvgNft.sol:DynamicSvgNft",
        "label": "_symbol",
        "offset": 0,
        "slot": "1",
        "type": "t_string_storage"
      },
      {
        "astId": 1039,
        "contract": "contracts/DynamicSvgNft.sol:DynamicSvgNft",
        "label": "_owners",
        "offset": 0,
        "slot": "2",
        "type": "t_mapping(t_uint256,t_address)"
      },
      {
        "astId": 1043,
        "contract": "contracts/DynamicSvgNft.sol:DynamicSvgNft",
        "label": "_balances",
        "offset": 0,
        "slot": "3",
        "type": "t_mapping(t_address,t_uint256)"
      },
      {
        "astId": 1047,
        "contract": "contracts/DynamicSvgNft.sol:DynamicSvgNft",
        "label": "_tokenApprovals",
        "offset": 0,
        "slot": "4",
        "type": "t_mapping(t_uint256,t_address)"
      },
      {
        "astId": 1053,
        "contract": "contracts/DynamicSvgNft.sol:DynamicSvgNft",
        "label": "_operatorApprovals",
        "offset": 0,
        "slot": "5",
        "type": "t_mapping(t_address,t_mapping(t_address,t_bool))"
      },
      {
        "astId": 2084,
        "contract": "contracts/DynamicSvgNft.sol:DynamicSvgNft",
        "label": "_tokenURIs",
        "offset": 0,
        "slot": "6",
        "type": "t_mapping(t_uint256,t_string_storage)"
      },
      {
        "astId": 874,
        "contract": "contracts/DynamicSvgNft.sol:DynamicSvgNft",
        "label": "_owner",
        "offset": 0,
        "slot": "7",
        "type": "t_address"
      },
      {
        "astId": 3972,
        "contract": "contracts/DynamicSvgNft.sol:DynamicSvgNft",
        "label": "s_tokenCounter",
        "offset": 0,
        "slot": "8",
        "type": "t_uint256"
      },
      {
        "astId": 3974,
        "contract": "contracts/DynamicSvgNft.sol:DynamicSvgNft",
        "label": "i_lowImageURI",
        "offset": 0,
        "slot": "9",
        "type": "t_string_storage"
      },
      {
        "astId": 3976,
        "contract": "contracts/DynamicSvgNft.sol:DynamicSvgNft",
        "label": "i_highImageURI",
        "offset": 0,
        "slot": "10",
        "type": "t_string_storage"
      },
      {
        "astId": 3986,
        "contract": "contracts/DynamicSvgNft.sol:DynamicSvgNft",
        "label": "s_tokenIdToHighValue",
        "offset": 0,
        "slot": "11",
        "type": "t_mapping(t_uint256,t_int256)"
      }
    ],
    "types": {
      "t_address": {
        "encoding": "inplace",
        "label": "address",
        "numberOfBytes": "20"
      },
      "t_bool": {
        "encoding": "inplace",
        "label": "bool",
        "numberOfBytes": "1"
      },
      "t_int256": {
        "encoding": "inplace",
        "label": "int256",
        "numberOfBytes": "32"
      },
      "t_mapping(t_address,t_bool)": {
        "encoding": "mapping",
        "key": "t_address",
        "label": "mapping(address => bool)",
        "numberOfBytes": "32",
        "value": "t_bool"
      },
      "t_mapping(t_address,t_mapping(t_address,t_bool))": {
        "encoding": "mapping",
        "key": "t_address",
        "label": "mapping(address => mapping(address => bool))",
        "numberOfBytes": "32",
        "value": "t_mapping(t_address,t_bool)"
      },
      "t_mapping(t_address,t_uint256)": {
        "encoding": "mapping",
        "key": "t_address",
        "label": "mapping(address => uint256)",
        "numberOfBytes": "32",
        "value": "t_uint256"
      },
      "t_mapping(t_uint256,t_address)": {
        "encoding": "mapping",
        "key": "t_uint256",
        "label": "mapping(uint256 => address)",
        "numberOfBytes": "32",
        "value": "t_address"
      },
      "t_mapping(t_uint256,t_int256)": {
        "encoding": "mapping",
        "key": "t_uint256",
        "label": "mapping(uint256 => int256)",
        "numberOfBytes": "32",
        "value": "t_int256"
      },
      "t_mapping(t_uint256,t_string_storage)": {
        "encoding": "mapping",
        "key": "t_uint256",
        "label": "mapping(uint256 => string)",
        "numberOfBytes": "32",
        "value": "t_string_storage"
      },
      "t_string_storage": {
        "encoding": "bytes",
        "label": "string",
        "numberOfBytes": "32"
      },
      "t_uint256": {
        "encoding": "inplace",
        "label": "uint256",
        "numberOfBytes": "32"
      }
    }
  }
}