{
  "address": "0xc73B21e5cC8a7FDA8596bF62d8162aD7A80a3A30",
  "abi": [
    {
      "inputs": [
        {
          "internalType": "address",
          "name": "vrfCoordinatorV2",
          "type": "address"
        },
        {
          "internalType": "bytes32",
          "name": "gasLane",
          "type": "bytes32"
        },
        {
          "internalType": "uint64",
          "name": "subscriptionId",
          "type": "uint64"
        },
        {
          "internalType": "uint32",
          "name": "callbackGasLimit",
          "type": "uint32"
        },
        {
          "internalType": "string[3]",
          "name": "dogTokenUris",
          "type": "string[3]"
        },
        {
          "internalType": "uint256",
          "name": "mintFee",
          "type": "uint256"
        }
      ],
      "stateMutability": "nonpayable",
      "type": "constructor"
    },
    {
      "inputs": [
        {
          "internalType": "address",
          "name": "have",
          "type": "address"
        },
        {
          "internalType": "address",
          "name": "want",
          "type": "address"
        }
      ],
      "name": "OnlyCoordinatorCanFulfill",
      "type": "error"
    },
    {
      "inputs": [],
      "name": "RandomIpfsNft__NeedMoreETHSent",
      "type": "error"
    },
    {
      "inputs": [],
      "name": "RandomIpfsNft__RangeOutOfBounds",
      "type": "error"
    },
    {
      "inputs": [],
      "name": "RandomIpfsNft__TransferFailed",
      "type": "error"
    },
    {
      "anonymous": false,
      "inputs": [
        {
          "indexed": true,
          "internalType": "address",
          "name": "owner",
          "type": "address"
        },
        {
          "indexed": true,
          "internalType": "address",
          "name": "approved",
          "type": "address"
        },
        {
          "indexed": true,
          "internalType": "uint256",
          "name": "tokenId",
          "type": "uint256"
        }
      ],
      "name": "Approval",
      "type": "event"
    },
    {
      "anonymous": false,
      "inputs": [
        {
          "indexed": true,
          "internalType": "address",
          "name": "owner",
          "type": "address"
        },
        {
          "indexed": true,
          "internalType": "address",
          "name": "operator",
          "type": "address"
        },
        {
          "indexed": false,
          "internalType": "bool",
          "name": "approved",
          "type": "bool"
        }
      ],
      "name": "ApprovalForAll",
      "type": "event"
    },
    {
      "anonymous": false,
      "inputs": [
        {
          "indexed": false,
          "internalType": "uint256",
          "name": "_fromTokenId",
          "type": "uint256"
        },
        {
          "indexed": false,
          "internalType": "uint256",
          "name": "_toTokenId",
          "type": "uint256"
        }
      ],
      "name": "BatchMetadataUpdate",
      "type": "event"
    },
    {
      "anonymous": false,
      "inputs": [
        {
          "indexed": false,
          "internalType": "uint256",
          "name": "_tokenId",
          "type": "uint256"
        }
      ],
      "name": "MetadataUpdate",
      "type": "event"
    },
    {
      "anonymous": false,
      "inputs": [
        {
          "indexed": false,
          "internalType": "enum RandomIpfsNft.Breed",
          "name": "dogBreed",
          "type": "uint8"
        },
        {
          "indexed": false,
          "internalType": "address",
          "name": "minter",
          "type": "address"
        }
      ],
      "name": "NftMinted",
      "type": "event"
    },
    {
      "anonymous": false,
      "inputs": [
        {
          "indexed": true,
          "internalType": "uint256",
          "name": "requestId",
          "type": "uint256"
        },
        {
          "indexed": false,
          "internalType": "address",
          "name": "requester",
          "type": "address"
        }
      ],
      "name": "NftRequested",
      "type": "event"
    },
    {
      "anonymous": false,
      "inputs": [
        {
          "indexed": true,
          "internalType": "address",
          "name": "previousOwner",
          "type": "address"
        },
        {
          "indexed": true,
          "internalType": "address",
          "name": "newOwner",
          "type": "address"
        }
      ],
      "name": "OwnershipTransferred",
      "type": "event"
    },
    {
      "anonymous": false,
      "inputs": [
        {
          "indexed": true,
          "internalType": "address",
          "name": "from",
          "type": "address"
        },
        {
          "indexed": true,
          "internalType": "address",
          "name": "to",
          "type": "address"
        },
        {
          "indexed": true,
          "internalType": "uint256",
          "name": "tokenId",
          "type": "uint256"
        }
      ],
      "name": "Transfer",
      "type": "event"
    },
    {
      "inputs": [
        {
          "internalType": "address",
          "name": "to",
          "type": "address"
        },
        {
          "internalType": "uint256",
          "name": "tokenId",
          "type": "uint256"
        }
      ],
      "name": "approve",
      "outputs": [],
      "stateMutability": "nonpayable",
      "type": "function"
    },
    {
      "inputs": [
        {
          "internalType": "address",
          "name": "owner",
          "type": "address"
        }
      ],
      "name": "balanceOf",
      "outputs": [
        {
          "internalType": "uint256",
          "name": "",
          "type": "uint256"
        }
      ],
      "stateMutability": "view",
      "type": "function"
    },
    {
      "inputs": [
        {
          "internalType": "uint256",
          "name": "tokenId",
          "type": "uint256"
        }
      ],
      "name": "getApproved",
      "outputs": [
        {
          "internalType": "address",
          "name": "",
          "type": "address"
        }
      ],
      "stateMutability": "view",
      "type": "function"
    },
    {
      "inputs": [
        {
          "internalType": "uint256",
          "name": "moddedRng",
          "type": "uint256"
        }
      ],
      "name": "getBreedFromModdedRng",
      "outputs": [
        {
          "internalType": "enum RandomIpfsNft.Breed",
          "name": "",
          "type": "uint8"
        }
      ],
      "stateMutability": "pure",
      "type": "function"
    },
    {
      "inputs": [],
      "name": "getChanceArray",
      "outputs": [
        {
          "internalType": "uint256[3]",
          "name": "",
          "type": "uint256[3]"
        }
      ],
      "stateMutability": "pure",
      "type": "function"
    },
    {
      "inputs": [
        {
          "internalType": "uint256",
          "name": "index",
          "type": "uint256"
        }
      ],
      "name": "getDogTokenUris",
      "outputs": [
        {
          "internalType": "string",
          "name": "",
          "type": "string"
        }
      ],
      "stateMutability": "view",
      "type": "function"
    },
    {
      "inputs": [],
      "name": "getMintFee",
      "outputs": [
        {
          "internalType": "uint256",
          "name": "",
          "type": "uint256"
        }
      ],
      "stateMutability": "view",
      "type": "function"
    },
    {
      "inputs": [],
      "name": "getTokenCounter",
      "outputs": [
        {
          "internalType": "uint256",
          "name": "",
          "type": "uint256"
        }
      ],
      "stateMutability": "view",
      "type": "function"
    },
    {
      "inputs": [
        {
          "internalType": "address",
          "name": "owner",
          "type": "address"
        },
        {
          "internalType": "address",
          "name": "operator",
          "type": "address"
        }
      ],
      "name": "isApprovedForAll",
      "outputs": [
        {
          "internalType": "bool",
          "name": "",
          "type": "bool"
        }
      ],
      "stateMutability": "view",
      "type": "function"
    },
    {
      "inputs": [],
      "name": "name",
      "outputs": [
        {
          "internalType": "string",
          "name": "",
          "type": "string"
        }
      ],
      "stateMutability": "view",
      "type": "function"
    },
    {
      "inputs": [],
      "name": "owner",
      "outputs": [
        {
          "internalType": "address",
          "name": "",
          "type": "address"
        }
      ],
      "stateMutability": "view",
      "type": "function"
    },
    {
      "inputs": [
        {
          "internalType": "uint256",
          "name": "tokenId",
          "type": "uint256"
        }
      ],
      "name": "ownerOf",
      "outputs": [
        {
          "internalType": "address",
          "name": "",
          "type": "address"
        }
      ],
      "stateMutability": "view",
      "type": "function"
    },
    {
      "inputs": [
        {
          "internalType": "uint256",
          "name": "requestId",
          "type": "uint256"
        },
        {
          "internalType": "uint256[]",
          "name": "randomWords",
          "type": "uint256[]"
        }
      ],
      "name": "rawFulfillRandomWords",
      "outputs": [],
      "stateMutability": "nonpayable",
      "type": "function"
    },
    {
      "inputs": [],
      "name": "renounceOwnership",
      "outputs": [],
      "stateMutability": "nonpayable",
      "type": "function"
    },
    {
      "inputs": [],
      "name": "requestNft",
      "outputs": [
        {
          "internalType": "uint256",
          "name": "",
          "type": "uint256"
        }
      ],
      "stateMutability": "payable",
      "type": "function"
    },
    {
      "inputs": [],
      "name": "s_tokenCounter",
      "outputs": [
        {
          "internalType": "uint256",
          "name": "",
          "type": "uint256"
        }
      ],
      "stateMutability": "view",
      "type": "function"
    },
    {
      "inputs": [
        {
          "internalType": "address",
          "name": "from",
          "type": "address"
        },
        {
          "internalType": "address",
          "name": "to",
          "type": "address"
        },
        {
          "internalType": "uint256",
          "name": "tokenId",
          "type": "uint256"
        }
      ],
      "name": "safeTransferFrom",
      "outputs": [],
      "stateMutability": "nonpayable",
      "type": "function"
    },
    {
      "inputs": [
        {
          "internalType": "address",
          "name": "from",
          "type": "address"
        },
        {
          "internalType": "address",
          "name": "to",
          "type": "address"
        },
        {
          "internalType": "uint256",
          "name": "tokenId",
          "type": "uint256"
        },
        {
          "internalType": "bytes",
          "name": "data",
          "type": "bytes"
        }
      ],
      "name": "safeTransferFrom",
      "outputs": [],
      "stateMutability": "nonpayable",
      "type": "function"
    },
    {
      "inputs": [
        {
          "internalType": "address",
          "name": "operator",
          "type": "address"
        },
        {
          "internalType": "bool",
          "name": "approved",
          "type": "bool"
        }
      ],
      "name": "setApprovalForAll",
      "outputs": [],
      "stateMutability": "nonpayable",
      "type": "function"
    },
    {
      "inputs": [
        {
          "internalType": "bytes4",
          "name": "interfaceId",
          "type": "bytes4"
        }
      ],
      "name": "supportsInterface",
      "outputs": [
        {
          "internalType": "bool",
          "name": "",
          "type": "bool"
        }
      ],
      "stateMutability": "view",
      "type": "function"
    },
    {
      "inputs": [],
      "name": "symbol",
      "outputs": [
        {
          "internalType": "string",
          "name": "",
          "type": "string"
        }
      ],
      "stateMutability": "view",
      "type": "function"
    },
    {
      "inputs": [
        {
          "internalType": "uint256",
          "name": "tokenId",
          "type": "uint256"
        }
      ],
      "name": "tokenURI",
      "outputs": [
        {
          "internalType": "string",
          "name": "",
          "type": "string"
        }
      ],
      "stateMutability": "view",
      "type": "function"
    },
    {
      "inputs": [
        {
          "internalType": "address",
          "name": "from",
          "type": "address"
        },
        {
          "internalType": "address",
          "name": "to",
          "type": "address"
        },
        {
          "internalType": "uint256",
          "name": "tokenId",
          "type": "uint256"
        }
      ],
      "name": "transferFrom",
      "outputs": [],
      "stateMutability": "nonpayable",
      "type": "function"
    },
    {
      "inputs": [
        {
          "internalType": "address",
          "name": "newOwner",
          "type": "address"
        }
      ],
      "name": "transferOwnership",
      "outputs": [],
      "stateMutability": "nonpayable",
      "type": "function"
    },
    {
      "inputs": [],
      "name": "withdraw",
      "outputs": [],
      "stateMutability": "nonpayable",
      "type": "function"
    }
  ],
  "transactionHash": "0xfb8c54ba659dfa7ad22e1ee5a31cbcb14f86ab54fd443b77a7eddfaa92134381",
  "args": [
    "0x8103B0A8A00be2DDC778e6e7eaa21791Cd364625",
    "0x474e34a077df58807dbe9c96d3c009b23b3c6d0cce433e59bbf5b34f823bc56c",
    "2411",
    500000,
    [
      "ipfs://QmPHPmMc7mraYGkmk13zLqzkcJTn5QMH4K6J54oyHUzVky",
      "ipfs://Qmb5tjsnBbHjE65zoMypYvQucm1j131E9b3T9VoqgtCWKA",
      "ipfs://QmULn8CU3QegftZZ6GBTrqSEckaA2eLX1HqAi1sPh5FNEu"
    ],
    "10000000000000000"
  ],
  "numDeployments": 1,
  "solcInputHash": "38963175714b15d10272a25058ffd10f",
  "bytecode": "0x6101406040523480156200001257600080fd5b50604051620047c4380380620047c483398181016040528101906200003891906200074f565b6040518060400160405280600d81526020017f52616e646f6d497066734e6674000000000000000000000000000000000000008152506040518060400160405280600381526020017f52494e0000000000000000000000000000000000000000000000000000000000815250878073ffffffffffffffffffffffffffffffffffffffff1660808173ffffffffffffffffffffffffffffffffffffffff1681525050508160009081620000eb919062000a4b565b508060019081620000fd919062000a4b565b5050506200012062000114620001b660201b60201c565b620001be60201b60201c565b8573ffffffffffffffffffffffffffffffffffffffff1660a08173ffffffffffffffffffffffffffffffffffffffff16815250508460c081815250508367ffffffffffffffff1660e08167ffffffffffffffff16815250508263ffffffff166101008163ffffffff168152505080610120818152505081600a906003620001a992919062000284565b5050505050505062000b32565b600033905090565b6000600760009054906101000a900473ffffffffffffffffffffffffffffffffffffffff16905081600760006101000a81548173ffffffffffffffffffffffffffffffffffffffff021916908373ffffffffffffffffffffffffffffffffffffffff1602179055508173ffffffffffffffffffffffffffffffffffffffff168173ffffffffffffffffffffffffffffffffffffffff167f8be0079c531659141344cd1fd0a4f28419497f9722a3daafe3b4186f6b6457e060405160405180910390a35050565b828054828255906000526020600020908101928215620002d1579160200282015b82811115620002d0578251829081620002bf919062000a4b565b5091602001919060010190620002a5565b5b509050620002e09190620002e4565b5090565b5b80821115620003085760008181620002fe91906200030c565b50600101620002e5565b5090565b5080546200031a9062000844565b6000825580601f106200032e57506200034f565b601f0160209004906000526020600020908101906200034e919062000352565b5b50565b5b808211156200036d57600081600090555060010162000353565b5090565b6000604051905090565b600080fd5b600080fd5b600073ffffffffffffffffffffffffffffffffffffffff82169050919050565b6000620003b28262000385565b9050919050565b620003c481620003a5565b8114620003d057600080fd5b50565b600081519050620003e481620003b9565b92915050565b6000819050919050565b620003ff81620003ea565b81146200040b57600080fd5b50565b6000815190506200041f81620003f4565b92915050565b600067ffffffffffffffff82169050919050565b620004448162000425565b81146200045057600080fd5b50565b600081519050620004648162000439565b92915050565b600063ffffffff82169050919050565b62000485816200046a565b81146200049157600080fd5b50565b600081519050620004a5816200047a565b92915050565b600080fd5b6000601f19601f8301169050919050565b7f4e487b7100000000000000000000000000000000000000000000000000000000600052604160045260246000fd5b620004fb82620004b0565b810181811067ffffffffffffffff821117156200051d576200051c620004c1565b5b80604052505050565b60006200053262000371565b9050620005408282620004f0565b919050565b600067ffffffffffffffff821115620005635762000562620004c1565b5b602082029050919050565b600080fd5b600080fd5b600067ffffffffffffffff821115620005965762000595620004c1565b5b620005a182620004b0565b9050602081019050919050565b60005b83811015620005ce578082015181840152602081019050620005b1565b60008484015250505050565b6000620005f1620005eb8462000578565b62000526565b90508281526020810184848401111562000610576200060f62000573565b5b6200061d848285620005ae565b509392505050565b600082601f8301126200063d576200063c620004ab565b5b81516200064f848260208601620005da565b91505092915050565b60006200066f620006698462000545565b62000526565b905080602084028301858111156200068c576200068b6200056e565b5b835b81811015620006da57805167ffffffffffffffff811115620006b557620006b4620004ab565b5b808601620006c4898262000625565b855260208501945050506020810190506200068e565b5050509392505050565b600082601f830112620006fc57620006fb620004ab565b5b60036200070b84828562000658565b91505092915050565b6000819050919050565b620007298162000714565b81146200073557600080fd5b50565b60008151905062000749816200071e565b92915050565b60008060008060008060c087890312156200076f576200076e6200037b565b5b60006200077f89828a01620003d3565b96505060206200079289828a016200040e565b9550506040620007a589828a0162000453565b9450506060620007b889828a0162000494565b935050608087015167ffffffffffffffff811115620007dc57620007db62000380565b5b620007ea89828a01620006e4565b92505060a0620007fd89828a0162000738565b9150509295509295509295565b600081519050919050565b7f4e487b7100000000000000000000000000000000000000000000000000000000600052602260045260246000fd5b600060028204905060018216806200085d57607f821691505b60208210810362000873576200087262000815565b5b50919050565b60008190508160005260206000209050919050565b60006020601f8301049050919050565b600082821b905092915050565b600060088302620008dd7fffffffffffffffffffffffffffffffffffffffffffffffffffffffffffffffff826200089e565b620008e986836200089e565b95508019841693508086168417925050509392505050565b6000819050919050565b60006200092c62000926620009208462000714565b62000901565b62000714565b9050919050565b6000819050919050565b62000948836200090b565b62000960620009578262000933565b848454620008ab565b825550505050565b600090565b6200097762000968565b620009848184846200093d565b505050565b5b81811015620009ac57620009a06000826200096d565b6001810190506200098a565b5050565b601f821115620009fb57620009c58162000879565b620009d0846200088e565b81016020851015620009e0578190505b620009f8620009ef856200088e565b83018262000989565b50505b505050565b600082821c905092915050565b600062000a206000198460080262000a00565b1980831691505092915050565b600062000a3b838362000a0d565b9150826002028217905092915050565b62000a56826200080a565b67ffffffffffffffff81111562000a725762000a71620004c1565b5b62000a7e825462000844565b62000a8b828285620009b0565b600060209050601f83116001811462000ac3576000841562000aae578287015190505b62000aba858262000a2d565b86555062000b2a565b601f19841662000ad38662000879565b60005b8281101562000afd5784890151825560018201915060208501945060208101905062000ad6565b8683101562000b1d578489015162000b19601f89168262000a0d565b8355505b6001600288020188555050505b505050505050565b60805160a05160c05160e0516101005161012051613c3462000b9060003960008181610c6f0152610e4b01526000610f2701526000610f0401526000610ee301526000610ea701526000818161084301526108970152613c346000f3fe6080604052600436106101665760003560e01c80636e02007d116100d1578063a22cb4651161008a578063b88d4fde11610064578063b88d4fde1461051f578063c87b56dd14610548578063e985e9c514610585578063f2fde38b146105c257610166565b8063a22cb4651461049b578063a51cccf3146104c4578063aa1524911461050157610166565b80636e02007d1461039b57806370a08231146103c6578063715018a6146104035780637a5caab31461041a5780638da5cb5b1461044557806395d89b411461047057610166565b806323b872dd1161012357806323b872dd1461028d5780633af25975146102b65780633ccfd60b146102f357806342842e0e1461030a5780635dacf5f4146103335780636352211e1461035e57610166565b806301ffc9a71461016b57806306fdde03146101a8578063081812fc146101d3578063095ea7b3146102105780630b21a83b146102395780631fe543e314610264575b600080fd5b34801561017757600080fd5b50610192600480360381019061018d91906125f6565b6105eb565b60405161019f919061263e565b60405180910390f35b3480156101b457600080fd5b506101bd61064c565b6040516101ca91906126e9565b60405180910390f35b3480156101df57600080fd5b506101fa60048036038101906101f59190612741565b6106de565b60405161020791906127af565b60405180910390f35b34801561021c57600080fd5b50610237600480360381019061023291906127f6565b610724565b005b34801561024557600080fd5b5061024e61083b565b60405161025b9190612845565b60405180910390f35b34801561027057600080fd5b5061028b600480360381019061028691906129a8565b610841565b005b34801561029957600080fd5b506102b460048036038101906102af9190612a04565b610901565b005b3480156102c257600080fd5b506102dd60048036038101906102d89190612741565b610961565b6040516102ea91906126e9565b60405180910390f35b3480156102ff57600080fd5b50610308610a11565b005b34801561031657600080fd5b50610331600480360381019061032c9190612a04565b610ac5565b005b34801561033f57600080fd5b50610348610ae5565b6040516103559190612b02565b60405180910390f35b34801561036a57600080fd5b5061038560048036038101906103809190612741565b610b10565b60405161039291906127af565b60405180910390f35b3480156103a757600080fd5b506103b0610b96565b6040516103bd9190612845565b60405180910390f35b3480156103d257600080fd5b506103ed60048036038101906103e89190612b1d565b610ba0565b6040516103fa9190612845565b60405180910390f35b34801561040f57600080fd5b50610418610c57565b005b34801561042657600080fd5b5061042f610c6b565b60405161043c9190612845565b60405180910390f35b34801561045157600080fd5b5061045a610c93565b60405161046791906127af565b60405180910390f35b34801561047c57600080fd5b50610485610cbd565b60405161049291906126e9565b60405180910390f35b3480156104a757600080fd5b506104c260048036038101906104bd9190612b76565b610d4f565b005b3480156104d057600080fd5b506104eb60048036038101906104e69190612741565b610d65565b6040516104f89190612c2d565b60405180910390f35b610509610e47565b6040516105169190612845565b60405180910390f35b34801561052b57600080fd5b5061054660048036038101906105419190612cfd565b61103e565b005b34801561055457600080fd5b5061056f600480360381019061056a9190612741565b6110a0565b60405161057c91906126e9565b60405180910390f35b34801561059157600080fd5b506105ac60048036038101906105a79190612d80565b6111b2565b6040516105b9919061263e565b60405180910390f35b3480156105ce57600080fd5b506105e960048036038101906105e49190612b1d565b611246565b005b6000634906490660e01b7bffffffffffffffffffffffffffffffffffffffffffffffffffffffff1916827bffffffffffffffffffffffffffffffffffffffffffffffffffffffff191614806106455750610644826112c9565b5b9050919050565b60606000805461065b90612def565b80601f016020809104026020016040519081016040528092919081815260200182805461068790612def565b80156106d45780601f106106a9576101008083540402835291602001916106d4565b820191906000526020600020905b8154815290600101906020018083116106b757829003601f168201915b5050505050905090565b60006106e9826113ab565b6004600083815260200190815260200160002060009054906101000a900473ffffffffffffffffffffffffffffffffffffffff169050919050565b600061072f82610b10565b90508073ffffffffffffffffffffffffffffffffffffffff168373ffffffffffffffffffffffffffffffffffffffff160361079f576040517f08c379a000000000000000000000000000000000000000000000000000000000815260040161079690612e92565b60405180910390fd5b8073ffffffffffffffffffffffffffffffffffffffff166107be6113f6565b73ffffffffffffffffffffffffffffffffffffffff1614806107ed57506107ec816107e76113f6565b6111b2565b5b61082c576040517f08c379a000000000000000000000000000000000000000000000000000000000815260040161082390612f24565b60405180910390fd5b61083683836113fe565b505050565b60095481565b7f000000000000000000000000000000000000000000000000000000000000000073ffffffffffffffffffffffffffffffffffffffff163373ffffffffffffffffffffffffffffffffffffffff16146108f357337f00000000000000000000000000000000000000000000000000000000000000006040517f1cf993f40000000000000000000000000000000000000000000000000000000081526004016108ea929190612f44565b60405180910390fd5b6108fd82826114b7565b5050565b61091261090c6113f6565b82611656565b610951576040517f08c379a000000000000000000000000000000000000000000000000000000000815260040161094890612fdf565b60405180910390fd5b61095c8383836116eb565b505050565b6060600a828154811061097757610976612fff565b5b90600052602060002001805461098c90612def565b80601f01602080910402602001604051908101604052809291908181526020018280546109b890612def565b8015610a055780601f106109da57610100808354040283529160200191610a05565b820191906000526020600020905b8154815290600101906020018083116109e857829003601f168201915b50505050509050919050565b610a196119e4565b600047905060003373ffffffffffffffffffffffffffffffffffffffff1682604051610a449061305f565b60006040518083038185875af1925050503d8060008114610a81576040519150601f19603f3d011682016040523d82523d6000602084013e610a86565b606091505b5050905080610ac1576040517fca7e25b700000000000000000000000000000000000000000000000000000000815260040160405180910390fd5b5050565b610ae08383836040518060200160405280600081525061103e565b505050565b610aed612568565b6040518060600160405280600a8152602001601e81526020016064815250905090565b600080610b1c83611a62565b9050600073ffffffffffffffffffffffffffffffffffffffff168173ffffffffffffffffffffffffffffffffffffffff1603610b8d576040517f08c379a0000000000000000000000000000000000000000000000000000000008152600401610b84906130c0565b60405180910390fd5b80915050919050565b6000600954905090565b60008073ffffffffffffffffffffffffffffffffffffffff168273ffffffffffffffffffffffffffffffffffffffff1603610c10576040517f08c379a0000000000000000000000000000000000000000000000000000000008152600401610c0790613152565b60405180910390fd5b600360008373ffffffffffffffffffffffffffffffffffffffff1673ffffffffffffffffffffffffffffffffffffffff168152602001908152602001600020549050919050565b610c5f6119e4565b610c696000611a9f565b565b60007f0000000000000000000000000000000000000000000000000000000000000000905090565b6000600760009054906101000a900473ffffffffffffffffffffffffffffffffffffffff16905090565b606060018054610ccc90612def565b80601f0160208091040260200160405190810160405280929190818152602001828054610cf890612def565b8015610d455780601f10610d1a57610100808354040283529160200191610d45565b820191906000526020600020905b815481529060010190602001808311610d2857829003601f168201915b5050505050905090565b610d61610d5a6113f6565b8383611b65565b5050565b600080600090506000610d76610ae5565b905060005b6003811015610e0f57828510158015610db55750818160038110610da257610da1612fff565b5b602002015183610db291906131a1565b85105b15610dd757806002811115610dcd57610dcc612bb6565b5b9350505050610e42565b818160038110610dea57610de9612fff565b5b602002015183610dfa91906131a1565b92508080610e07906131d5565b915050610d7b565b506040517f12806c9d00000000000000000000000000000000000000000000000000000000815260040160405180910390fd5b919050565b60007f0000000000000000000000000000000000000000000000000000000000000000341015610ea3576040517fb90f491000000000000000000000000000000000000000000000000000000000815260040160405180910390fd5b60007f000000000000000000000000000000000000000000000000000000000000000073ffffffffffffffffffffffffffffffffffffffff16635d3b1d307f00000000000000000000000000000000000000000000000000000000000000007f000000000000000000000000000000000000000000000000000000000000000060037f000000000000000000000000000000000000000000000000000000000000000060016040518663ffffffff1660e01b8152600401610f68959493929190613295565b6020604051808303816000875af1158015610f87573d6000803e3d6000fd5b505050506040513d601f19601f82011682018060405250810190610fab91906132fd565b9050336008600083815260200190815260200160002060006101000a81548173ffffffffffffffffffffffffffffffffffffffff021916908373ffffffffffffffffffffffffffffffffffffffff160217905550807ff873236e6cc0ecc5be1a9a35c95ee5b8d1ac4cc7bfef0cc5060391d6cc98e26b3360405161102f91906127af565b60405180910390a28091505090565b61104f6110496113f6565b83611656565b61108e576040517f08c379a000000000000000000000000000000000000000000000000000000000815260040161108590612fdf565b60405180910390fd5b61109a84848484611cd1565b50505050565b60606110ab826113ab565b60006006600084815260200190815260200160002080546110cb90612def565b80601f01602080910402602001604051908101604052809291908181526020018280546110f790612def565b80156111445780601f1061111957610100808354040283529160200191611144565b820191906000526020600020905b81548152906001019060200180831161112757829003601f168201915b505050505090506000611155611d2d565b9050600081510361116a5781925050506111ad565b60008251111561119f578082604051602001611187929190613366565b604051602081830303815290604052925050506111ad565b6111a884611d44565b925050505b919050565b6000600560008473ffffffffffffffffffffffffffffffffffffffff1673ffffffffffffffffffffffffffffffffffffffff16815260200190815260200160002060008373ffffffffffffffffffffffffffffffffffffffff1673ffffffffffffffffffffffffffffffffffffffff16815260200190815260200160002060009054906101000a900460ff16905092915050565b61124e6119e4565b600073ffffffffffffffffffffffffffffffffffffffff168173ffffffffffffffffffffffffffffffffffffffff16036112bd576040517f08c379a00000000000000000000000000000000000000000000000000000000081526004016112b4906133fc565b60405180910390fd5b6112c681611a9f565b50565b60007f80ac58cd000000000000000000000000000000000000000000000000000000007bffffffffffffffffffffffffffffffffffffffffffffffffffffffff1916827bffffffffffffffffffffffffffffffffffffffffffffffffffffffff1916148061139457507f5b5e139f000000000000000000000000000000000000000000000000000000007bffffffffffffffffffffffffffffffffffffffffffffffffffffffff1916827bffffffffffffffffffffffffffffffffffffffffffffffffffffffff1916145b806113a457506113a382611dac565b5b9050919050565b6113b481611e16565b6113f3576040517f08c379a00000000000000000000000000000000000000000000000000000000081526004016113ea906130c0565b60405180910390fd5b50565b600033905090565b816004600083815260200190815260200160002060006101000a81548173ffffffffffffffffffffffffffffffffffffffff021916908373ffffffffffffffffffffffffffffffffffffffff160217905550808273ffffffffffffffffffffffffffffffffffffffff1661147183610b10565b73ffffffffffffffffffffffffffffffffffffffff167f8c5be1e5ebec7d5bd14f71427d1e84f3dd0314c0f7b2291e5b200ac8c7c3b92560405160405180910390a45050565b60006008600084815260200190815260200160002060009054906101000a900473ffffffffffffffffffffffffffffffffffffffff16905060006009549050600060648460008151811061150e5761150d612fff565b5b6020026020010151611520919061344b565b9050600061152d82610d65565b905060016009600082825461154291906131a1565b925050819055506115538484611e57565b61161583600a83600281111561156c5761156b612bb6565b5b8154811061157d5761157c612fff565b5b90600052602060002001805461159290612def565b80601f01602080910402602001604051908101604052809291908181526020018280546115be90612def565b801561160b5780601f106115e05761010080835404028352916020019161160b565b820191906000526020600020905b8154815290600101906020018083116115ee57829003601f168201915b5050505050611e75565b7f8a269f26b688e110e9cbd887d163dab35cae678fa353a0292de532c0cac1ecdc818560405161164692919061347c565b60405180910390a1505050505050565b60008061166283610b10565b90508073ffffffffffffffffffffffffffffffffffffffff168473ffffffffffffffffffffffffffffffffffffffff1614806116a457506116a381856111b2565b5b806116e257508373ffffffffffffffffffffffffffffffffffffffff166116ca846106de565b73ffffffffffffffffffffffffffffffffffffffff16145b91505092915050565b8273ffffffffffffffffffffffffffffffffffffffff1661170b82610b10565b73ffffffffffffffffffffffffffffffffffffffff1614611761576040517f08c379a000000000000000000000000000000000000000000000000000000000815260040161175890613517565b60405180910390fd5b600073ffffffffffffffffffffffffffffffffffffffff168273ffffffffffffffffffffffffffffffffffffffff16036117d0576040517f08c379a00000000000000000000000000000000000000000000000000000000081526004016117c7906135a9565b60405180910390fd5b6117dd8383836001611f19565b8273ffffffffffffffffffffffffffffffffffffffff166117fd82610b10565b73ffffffffffffffffffffffffffffffffffffffff1614611853576040517f08c379a000000000000000000000000000000000000000000000000000000000815260040161184a90613517565b60405180910390fd5b6004600082815260200190815260200160002060006101000a81549073ffffffffffffffffffffffffffffffffffffffff02191690556001600360008573ffffffffffffffffffffffffffffffffffffffff1673ffffffffffffffffffffffffffffffffffffffff168152602001908152602001600020600082825403925050819055506001600360008473ffffffffffffffffffffffffffffffffffffffff1673ffffffffffffffffffffffffffffffffffffffff16815260200190815260200160002060008282540192505081905550816002600083815260200190815260200160002060006101000a81548173ffffffffffffffffffffffffffffffffffffffff021916908373ffffffffffffffffffffffffffffffffffffffff160217905550808273ffffffffffffffffffffffffffffffffffffffff168473ffffffffffffffffffffffffffffffffffffffff167fddf252ad1be2c89b69c2b068fc378daa952ba7f163c4a11628f55a4df523b3ef60405160405180910390a46119df8383836001611f1f565b505050565b6119ec6113f6565b73ffffffffffffffffffffffffffffffffffffffff16611a0a610c93565b73ffffffffffffffffffffffffffffffffffffffff1614611a60576040517f08c379a0000000000000000000000000000000000000000000000000000000008152600401611a5790613615565b60405180910390fd5b565b60006002600083815260200190815260200160002060009054906101000a900473ffffffffffffffffffffffffffffffffffffffff169050919050565b6000600760009054906101000a900473ffffffffffffffffffffffffffffffffffffffff16905081600760006101000a81548173ffffffffffffffffffffffffffffffffffffffff021916908373ffffffffffffffffffffffffffffffffffffffff1602179055508173ffffffffffffffffffffffffffffffffffffffff168173ffffffffffffffffffffffffffffffffffffffff167f8be0079c531659141344cd1fd0a4f28419497f9722a3daafe3b4186f6b6457e060405160405180910390a35050565b8173ffffffffffffffffffffffffffffffffffffffff168373ffffffffffffffffffffffffffffffffffffffff1603611bd3576040517f08c379a0000000000000000000000000000000000000000000000000000000008152600401611bca90613681565b60405180910390fd5b80600560008573ffffffffffffffffffffffffffffffffffffffff1673ffffffffffffffffffffffffffffffffffffffff16815260200190815260200160002060008473ffffffffffffffffffffffffffffffffffffffff1673ffffffffffffffffffffffffffffffffffffffff16815260200190815260200160002060006101000a81548160ff0219169083151502179055508173ffffffffffffffffffffffffffffffffffffffff168373ffffffffffffffffffffffffffffffffffffffff167f17307eab39ab6107e8899845ad3d59bd9653f200f220920489ca2b5937696c3183604051611cc4919061263e565b60405180910390a3505050565b611cdc8484846116eb565b611ce884848484611f25565b611d27576040517f08c379a0000000000000000000000000000000000000000000000000000000008152600401611d1e90613713565b60405180910390fd5b50505050565b606060405180602001604052806000815250905090565b6060611d4f826113ab565b6000611d59611d2d565b90506000815111611d795760405180602001604052806000815250611da4565b80611d83846120ac565b604051602001611d94929190613366565b6040516020818303038152906040525b915050919050565b60007f01ffc9a7000000000000000000000000000000000000000000000000000000007bffffffffffffffffffffffffffffffffffffffffffffffffffffffff1916827bffffffffffffffffffffffffffffffffffffffffffffffffffffffff1916149050919050565b60008073ffffffffffffffffffffffffffffffffffffffff16611e3883611a62565b73ffffffffffffffffffffffffffffffffffffffff1614159050919050565b611e7182826040518060200160405280600081525061217a565b5050565b611e7e82611e16565b611ebd576040517f08c379a0000000000000000000000000000000000000000000000000000000008152600401611eb4906137a5565b60405180910390fd5b80600660008481526020019081526020016000209081611edd9190613971565b507ff8e1a15aba9398e019f0b49df1a4fde98ee17ae345cb5f6b5e2c27f5033e8ce782604051611f0d9190612845565b60405180910390a15050565b50505050565b50505050565b6000611f468473ffffffffffffffffffffffffffffffffffffffff166121d5565b1561209f578373ffffffffffffffffffffffffffffffffffffffff1663150b7a02611f6f6113f6565b8786866040518563ffffffff1660e01b8152600401611f919493929190613a98565b6020604051808303816000875af1925050508015611fcd57506040513d601f19601f82011682018060405250810190611fca9190613af9565b60015b61204f573d8060008114611ffd576040519150601f19603f3d011682016040523d82523d6000602084013e612002565b606091505b506000815103612047576040517f08c379a000000000000000000000000000000000000000000000000000000000815260040161203e90613713565b60405180910390fd5b805181602001fd5b63150b7a0260e01b7bffffffffffffffffffffffffffffffffffffffffffffffffffffffff1916817bffffffffffffffffffffffffffffffffffffffffffffffffffffffff1916149150506120a4565b600190505b949350505050565b6060600060016120bb846121f8565b01905060008167ffffffffffffffff8111156120da576120d9612865565b5b6040519080825280601f01601f19166020018201604052801561210c5781602001600182028036833780820191505090505b509050600082602001820190505b60011561216f578080600190039150507f3031323334353637383961626364656600000000000000000000000000000000600a86061a8153600a85816121635761216261341c565b5b0494506000850361211a575b819350505050919050565b612184838361234b565b6121916000848484611f25565b6121d0576040517f08c379a00000000000000000000000000000000000000000000000000000000081526004016121c790613713565b60405180910390fd5b505050565b6000808273ffffffffffffffffffffffffffffffffffffffff163b119050919050565b600080600090507a184f03e93ff9f4daa797ed6e38ed64bf6a1f0100000000000000008310612256577a184f03e93ff9f4daa797ed6e38ed64bf6a1f010000000000000000838161224c5761224b61341c565b5b0492506040810190505b6d04ee2d6d415b85acef81000000008310612293576d04ee2d6d415b85acef810000000083816122895761228861341c565b5b0492506020810190505b662386f26fc1000083106122c257662386f26fc1000083816122b8576122b761341c565b5b0492506010810190505b6305f5e10083106122eb576305f5e10083816122e1576122e061341c565b5b0492506008810190505b61271083106123105761271083816123065761230561341c565b5b0492506004810190505b6064831061233357606483816123295761232861341c565b5b0492506002810190505b600a8310612342576001810190505b80915050919050565b600073ffffffffffffffffffffffffffffffffffffffff168273ffffffffffffffffffffffffffffffffffffffff16036123ba576040517f08c379a00000000000000000000000000000000000000000000000000000000081526004016123b190613b72565b60405180910390fd5b6123c381611e16565b15612403576040517f08c379a00000000000000000000000000000000000000000000000000000000081526004016123fa90613bde565b60405180910390fd5b612411600083836001611f19565b61241a81611e16565b1561245a576040517f08c379a000000000000000000000000000000000000000000000000000000000815260040161245190613bde565b60405180910390fd5b6001600360008473ffffffffffffffffffffffffffffffffffffffff1673ffffffffffffffffffffffffffffffffffffffff16815260200190815260200160002060008282540192505081905550816002600083815260200190815260200160002060006101000a81548173ffffffffffffffffffffffffffffffffffffffff021916908373ffffffffffffffffffffffffffffffffffffffff160217905550808273ffffffffffffffffffffffffffffffffffffffff16600073ffffffffffffffffffffffffffffffffffffffff167fddf252ad1be2c89b69c2b068fc378daa952ba7f163c4a11628f55a4df523b3ef60405160405180910390a4612564600083836001611f1f565b5050565b6040518060600160405280600390602082028036833780820191505090505090565b6000604051905090565b600080fd5b600080fd5b60007fffffffff0000000000000000000000000000000000000000000000000000000082169050919050565b6125d38161259e565b81146125de57600080fd5b50565b6000813590506125f0816125ca565b92915050565b60006020828403121561260c5761260b612594565b5b600061261a848285016125e1565b91505092915050565b60008115159050919050565b61263881612623565b82525050565b6000602082019050612653600083018461262f565b92915050565b600081519050919050565b600082825260208201905092915050565b60005b83811015612693578082015181840152602081019050612678565b60008484015250505050565b6000601f19601f8301169050919050565b60006126bb82612659565b6126c58185612664565b93506126d5818560208601612675565b6126de8161269f565b840191505092915050565b6000602082019050818103600083015261270381846126b0565b905092915050565b6000819050919050565b61271e8161270b565b811461272957600080fd5b50565b60008135905061273b81612715565b92915050565b60006020828403121561275757612756612594565b5b60006127658482850161272c565b91505092915050565b600073ffffffffffffffffffffffffffffffffffffffff82169050919050565b60006127998261276e565b9050919050565b6127a98161278e565b82525050565b60006020820190506127c460008301846127a0565b92915050565b6127d38161278e565b81146127de57600080fd5b50565b6000813590506127f0816127ca565b92915050565b6000806040838503121561280d5761280c612594565b5b600061281b858286016127e1565b925050602061282c8582860161272c565b9150509250929050565b61283f8161270b565b82525050565b600060208201905061285a6000830184612836565b92915050565b600080fd5b7f4e487b7100000000000000000000000000000000000000000000000000000000600052604160045260246000fd5b61289d8261269f565b810181811067ffffffffffffffff821117156128bc576128bb612865565b5b80604052505050565b60006128cf61258a565b90506128db8282612894565b919050565b600067ffffffffffffffff8211156128fb576128fa612865565b5b602082029050602081019050919050565b600080fd5b600061292461291f846128e0565b6128c5565b905080838252602082019050602084028301858111156129475761294661290c565b5b835b81811015612970578061295c888261272c565b845260208401935050602081019050612949565b5050509392505050565b600082601f83011261298f5761298e612860565b5b813561299f848260208601612911565b91505092915050565b600080604083850312156129bf576129be612594565b5b60006129cd8582860161272c565b925050602083013567ffffffffffffffff8111156129ee576129ed612599565b5b6129fa8582860161297a565b9150509250929050565b600080600060608486031215612a1d57612a1c612594565b5b6000612a2b868287016127e1565b9350506020612a3c868287016127e1565b9250506040612a4d8682870161272c565b9150509250925092565b600060039050919050565b600081905092915050565b6000819050919050565b612a808161270b565b82525050565b6000612a928383612a77565b60208301905092915050565b6000602082019050919050565b612ab481612a57565b612abe8184612a62565b9250612ac982612a6d565b8060005b83811015612afa578151612ae18782612a86565b9650612aec83612a9e565b925050600181019050612acd565b505050505050565b6000606082019050612b176000830184612aab565b92915050565b600060208284031215612b3357612b32612594565b5b6000612b41848285016127e1565b91505092915050565b612b5381612623565b8114612b5e57600080fd5b50565b600081359050612b7081612b4a565b92915050565b60008060408385031215612b8d57612b8c612594565b5b6000612b9b858286016127e1565b9250506020612bac85828601612b61565b9150509250929050565b7f4e487b7100000000000000000000000000000000000000000000000000000000600052602160045260246000fd5b60038110612bf657612bf5612bb6565b5b50565b6000819050612c0782612be5565b919050565b6000612c1782612bf9565b9050919050565b612c2781612c0c565b82525050565b6000602082019050612c426000830184612c1e565b92915050565b600080fd5b600067ffffffffffffffff821115612c6857612c67612865565b5b612c718261269f565b9050602081019050919050565b82818337600083830152505050565b6000612ca0612c9b84612c4d565b6128c5565b905082815260208101848484011115612cbc57612cbb612c48565b5b612cc7848285612c7e565b509392505050565b600082601f830112612ce457612ce3612860565b5b8135612cf4848260208601612c8d565b91505092915050565b60008060008060808587031215612d1757612d16612594565b5b6000612d25878288016127e1565b9450506020612d36878288016127e1565b9350506040612d478782880161272c565b925050606085013567ffffffffffffffff811115612d6857612d67612599565b5b612d7487828801612ccf565b91505092959194509250565b60008060408385031215612d9757612d96612594565b5b6000612da5858286016127e1565b9250506020612db6858286016127e1565b9150509250929050565b7f4e487b7100000000000000000000000000000000000000000000000000000000600052602260045260246000fd5b60006002820490506001821680612e0757607f821691505b602082108103612e1a57612e19612dc0565b5b50919050565b7f4552433732313a20617070726f76616c20746f2063757272656e74206f776e6560008201527f7200000000000000000000000000000000000000000000000000000000000000602082015250565b6000612e7c602183612664565b9150612e8782612e20565b604082019050919050565b60006020820190508181036000830152612eab81612e6f565b9050919050565b7f4552433732313a20617070726f76652063616c6c6572206973206e6f7420746f60008201527f6b656e206f776e6572206f7220617070726f76656420666f7220616c6c000000602082015250565b6000612f0e603d83612664565b9150612f1982612eb2565b604082019050919050565b60006020820190508181036000830152612f3d81612f01565b9050919050565b6000604082019050612f5960008301856127a0565b612f6660208301846127a0565b9392505050565b7f4552433732313a2063616c6c6572206973206e6f7420746f6b656e206f776e6560008201527f72206f7220617070726f76656400000000000000000000000000000000000000602082015250565b6000612fc9602d83612664565b9150612fd482612f6d565b604082019050919050565b60006020820190508181036000830152612ff881612fbc565b9050919050565b7f4e487b7100000000000000000000000000000000000000000000000000000000600052603260045260246000fd5b600081905092915050565b50565b600061304960008361302e565b915061305482613039565b600082019050919050565b600061306a8261303c565b9150819050919050565b7f4552433732313a20696e76616c696420746f6b656e2049440000000000000000600082015250565b60006130aa601883612664565b91506130b582613074565b602082019050919050565b600060208201905081810360008301526130d98161309d565b9050919050565b7f4552433732313a2061646472657373207a65726f206973206e6f74206120766160008201527f6c6964206f776e65720000000000000000000000000000000000000000000000602082015250565b600061313c602983612664565b9150613147826130e0565b604082019050919050565b6000602082019050818103600083015261316b8161312f565b9050919050565b7f4e487b7100000000000000000000000000000000000000000000000000000000600052601160045260246000fd5b60006131ac8261270b565b91506131b78361270b565b92508282019050808211156131cf576131ce613172565b5b92915050565b60006131e08261270b565b91507fffffffffffffffffffffffffffffffffffffffffffffffffffffffffffffffff820361321257613211613172565b5b600182019050919050565b6000819050919050565b6132308161321d565b82525050565b600067ffffffffffffffff82169050919050565b61325381613236565b82525050565b600061ffff82169050919050565b61327081613259565b82525050565b600063ffffffff82169050919050565b61328f81613276565b82525050565b600060a0820190506132aa6000830188613227565b6132b7602083018761324a565b6132c46040830186613267565b6132d16060830185613286565b6132de6080830184613286565b9695505050505050565b6000815190506132f781612715565b92915050565b60006020828403121561331357613312612594565b5b6000613321848285016132e8565b91505092915050565b600081905092915050565b600061334082612659565b61334a818561332a565b935061335a818560208601612675565b80840191505092915050565b60006133728285613335565b915061337e8284613335565b91508190509392505050565b7f4f776e61626c653a206e6577206f776e657220697320746865207a65726f206160008201527f6464726573730000000000000000000000000000000000000000000000000000602082015250565b60006133e6602683612664565b91506133f18261338a565b604082019050919050565b60006020820190508181036000830152613415816133d9565b9050919050565b7f4e487b7100000000000000000000000000000000000000000000000000000000600052601260045260246000fd5b60006134568261270b565b91506134618361270b565b9250826134715761347061341c565b5b828206905092915050565b60006040820190506134916000830185612c1e565b61349e60208301846127a0565b9392505050565b7f4552433732313a207472616e736665722066726f6d20696e636f72726563742060008201527f6f776e6572000000000000000000000000000000000000000000000000000000602082015250565b6000613501602583612664565b915061350c826134a5565b604082019050919050565b60006020820190508181036000830152613530816134f4565b9050919050565b7f4552433732313a207472616e7366657220746f20746865207a65726f2061646460008201527f7265737300000000000000000000000000000000000000000000000000000000602082015250565b6000613593602483612664565b915061359e82613537565b604082019050919050565b600060208201905081810360008301526135c281613586565b9050919050565b7f4f776e61626c653a2063616c6c6572206973206e6f7420746865206f776e6572600082015250565b60006135ff602083612664565b915061360a826135c9565b602082019050919050565b6000602082019050818103600083015261362e816135f2565b9050919050565b7f4552433732313a20617070726f766520746f2063616c6c657200000000000000600082015250565b600061366b601983612664565b915061367682613635565b602082019050919050565b6000602082019050818103600083015261369a8161365e565b9050919050565b7f4552433732313a207472616e7366657220746f206e6f6e20455243373231526560008201527f63656976657220696d706c656d656e7465720000000000000000000000000000602082015250565b60006136fd603283612664565b9150613708826136a1565b604082019050919050565b6000602082019050818103600083015261372c816136f0565b9050919050565b7f45524337323155524953746f726167653a2055524920736574206f66206e6f6e60008201527f6578697374656e7420746f6b656e000000000000000000000000000000000000602082015250565b600061378f602e83612664565b915061379a82613733565b604082019050919050565b600060208201905081810360008301526137be81613782565b9050919050565b60008190508160005260206000209050919050565b60006020601f8301049050919050565b600082821b905092915050565b6000600883026138277fffffffffffffffffffffffffffffffffffffffffffffffffffffffffffffffff826137ea565b61383186836137ea565b95508019841693508086168417925050509392505050565b6000819050919050565b600061386e6138696138648461270b565b613849565b61270b565b9050919050565b6000819050919050565b61388883613853565b61389c61389482613875565b8484546137f7565b825550505050565b600090565b6138b16138a4565b6138bc81848461387f565b505050565b5b818110156138e0576138d56000826138a9565b6001810190506138c2565b5050565b601f821115613925576138f6816137c5565b6138ff846137da565b8101602085101561390e578190505b61392261391a856137da565b8301826138c1565b50505b505050565b600082821c905092915050565b60006139486000198460080261392a565b1980831691505092915050565b60006139618383613937565b9150826002028217905092915050565b61397a82612659565b67ffffffffffffffff81111561399357613992612865565b5b61399d8254612def565b6139a88282856138e4565b600060209050601f8311600181146139db57600084156139c9578287015190505b6139d38582613955565b865550613a3b565b601f1984166139e9866137c5565b60005b82811015613a11578489015182556001820191506020850194506020810190506139ec565b86831015613a2e5784890151613a2a601f891682613937565b8355505b6001600288020188555050505b505050505050565b600081519050919050565b600082825260208201905092915050565b6000613a6a82613a43565b613a748185613a4e565b9350613a84818560208601612675565b613a8d8161269f565b840191505092915050565b6000608082019050613aad60008301876127a0565b613aba60208301866127a0565b613ac76040830185612836565b8181036060830152613ad98184613a5f565b905095945050505050565b600081519050613af3816125ca565b92915050565b600060208284031215613b0f57613b0e612594565b5b6000613b1d84828501613ae4565b91505092915050565b7f4552433732313a206d696e7420746f20746865207a65726f2061646472657373600082015250565b6000613b5c602083612664565b9150613b6782613b26565b602082019050919050565b60006020820190508181036000830152613b8b81613b4f565b9050919050565b7f4552433732313a20746f6b656e20616c7265616479206d696e74656400000000600082015250565b6000613bc8601c83612664565b9150613bd382613b92565b602082019050919050565b60006020820190508181036000830152613bf781613bbb565b905091905056fea26469706673582212208d1c33b50c63900a720e6fb9dcfd85dc38a124efe03a89bd280562a5764da86564736f6c63430008120033",
  "devdoc": {
    "events": {
      "Approval(address,address,uint256)": {
        "details": "Emitted when `owner` enables `approved` to manage the `tokenId` token."
      },
      "ApprovalForAll(address,address,bool)": {
        "details": "Emitted when `owner` enables or disables (`approved`) `operator` to manage all of its assets."
      },
      "BatchMetadataUpdate(uint256,uint256)": {
        "details": "This event emits when the metadata of a range of tokens is changed. So that the third-party platforms such as NFT market could timely update the images and related attributes of the NFTs."
      },
      "MetadataUpdate(uint256)": {
        "details": "This event emits when the metadata of a token is changed. So that the third-party platforms such as NFT market could timely update the images and related attributes of the NFT."
      },
      "Transfer(address,address,uint256)": {
        "details": "Emitted when `tokenId` token is transferred from `from` to `to`."
      }
    },
    "kind": "dev",
    "methods": {
      "approve(address,uint256)": {
        "details": "See {IERC721-approve}."
      },
      "balanceOf(address)": {
        "details": "See {IERC721-balanceOf}."
      },
      "getApproved(uint256)": {
        "details": "See {IERC721-getApproved}."
      },
      "isApprovedForAll(address,address)": {
        "details": "See {IERC721-isApprovedForAll}."
      },
      "name()": {
        "details": "See {IERC721Metadata-name}."
      },
      "owner()": {
        "details": "Returns the address of the current owner."
      },
      "ownerOf(uint256)": {
        "details": "See {IERC721-ownerOf}."
      },
      "renounceOwnership()": {
        "details": "Leaves the contract without owner. It will not be possible to call `onlyOwner` functions. Can only be called by the current owner. NOTE: Renouncing ownership will leave the contract without an owner, thereby disabling any functionality that is only available to the owner."
      },
      "safeTransferFrom(address,address,uint256)": {
        "details": "See {IERC721-safeTransferFrom}."
      },
      "safeTransferFrom(address,address,uint256,bytes)": {
        "details": "See {IERC721-safeTransferFrom}."
      },
      "setApprovalForAll(address,bool)": {
        "details": "See {IERC721-setApprovalForAll}."
      },
      "supportsInterface(bytes4)": {
        "details": "See {IERC165-supportsInterface}"
      },
      "symbol()": {
        "details": "See {IERC721Metadata-symbol}."
      },
      "tokenURI(uint256)": {
        "details": "See {IERC721Metadata-tokenURI}."
      },
      "transferFrom(address,address,uint256)": {
        "details": "See {IERC721-transferFrom}."
      },
      "transferOwnership(address)": {
        "details": "Transfers ownership of the contract to a new account (`newOwner`). Can only be called by the current owner."
      }
    },
    "version": 1
  },
  "userdoc": {
    "events": {
      "NftRequested(uint256,address)": {
        "notice": "Events *"
      }
    },
    "kind": "user",
    "methods": {
      "s_tokenCounter()": {
        "notice": "State vars *"
      }
    },
    "version": 1
  },
  "storageLayout": {
    "storage": [
      {
        "astId": 1033,
        "contract": "contracts/RandomIpfsNft.sol:RandomIpfsNft",
        "label": "_name",
        "offset": 0,
        "slot": "0",
        "type": "t_string_storage"
      },
      {
        "astId": 1035,
        "contract": "contracts/RandomIpfsNft.sol:RandomIpfsNft",
        "label": "_symbol",
        "offset": 0,
        "slot": "1",
        "type": "t_string_storage"
      },
      {
        "astId": 1039,
        "contract": "contracts/RandomIpfsNft.sol:RandomIpfsNft",
        "label": "_owners",
        "offset": 0,
        "slot": "2",
        "type": "t_mapping(t_uint256,t_address)"
      },
      {
        "astId": 1043,
        "contract": "contracts/RandomIpfsNft.sol:RandomIpfsNft",
        "label": "_balances",
        "offset": 0,
        "slot": "3",
        "type": "t_mapping(t_address,t_uint256)"
      },
      {
        "astId": 1047,
        "contract": "contracts/RandomIpfsNft.sol:RandomIpfsNft",
        "label": "_tokenApprovals",
        "offset": 0,
        "slot": "4",
        "type": "t_mapping(t_uint256,t_address)"
      },
      {
        "astId": 1053,
        "contract": "contracts/RandomIpfsNft.sol:RandomIpfsNft",
        "label": "_operatorApprovals",
        "offset": 0,
        "slot": "5",
        "type": "t_mapping(t_address,t_mapping(t_address,t_bool))"
      },
      {
        "astId": 2084,
        "contract": "contracts/RandomIpfsNft.sol:RandomIpfsNft",
        "label": "_tokenURIs",
        "offset": 0,
        "slot": "6",
        "type": "t_mapping(t_uint256,t_string_storage)"
      },
      {
        "astId": 874,
        "contract": "contracts/RandomIpfsNft.sol:RandomIpfsNft",
        "label": "_owner",
        "offset": 0,
        "slot": "7",
        "type": "t_address"
      },
      {
        "astId": 4207,
        "contract": "contracts/RandomIpfsNft.sol:RandomIpfsNft",
        "label": "s_requestIdToSender",
        "offset": 0,
        "slot": "8",
        "type": "t_mapping(t_uint256,t_address)"
      },
      {
        "astId": 4210,
        "contract": "contracts/RandomIpfsNft.sol:RandomIpfsNft",
        "label": "s_tokenCounter",
        "offset": 0,
        "slot": "9",
        "type": "t_uint256"
      },
      {
        "astId": 4216,
        "contract": "contracts/RandomIpfsNft.sol:RandomIpfsNft",
        "label": "s_dogTokenUris",
        "offset": 0,
        "slot": "10",
        "type": "t_array(t_string_storage)dyn_storage"
      }
    ],
    "types": {
      "t_address": {
        "encoding": "inplace",
        "label": "address",
        "numberOfBytes": "20"
      },
      "t_array(t_string_storage)dyn_storage": {
        "base": "t_string_storage",
        "encoding": "dynamic_array",
        "label": "string[]",
        "numberOfBytes": "32"
      },
      "t_bool": {
        "encoding": "inplace",
        "label": "bool",
        "numberOfBytes": "1"
      },
      "t_mapping(t_address,t_bool)": {
        "encoding": "mapping",
        "key": "t_address",
        "label": "mapping(address => bool)",
        "numberOfBytes": "32",
        "value": "t_bool"
      },
      "t_mapping(t_address,t_mapping(t_address,t_bool))": {
        "encoding": "mapping",
        "key": "t_address",
        "label": "mapping(address => mapping(address => bool))",
        "numberOfBytes": "32",
        "value": "t_mapping(t_address,t_bool)"
      },
      "t_mapping(t_address,t_uint256)": {
        "encoding": "mapping",
        "key": "t_address",
        "label": "mapping(address => uint256)",
        "numberOfBytes": "32",
        "value": "t_uint256"
      },
      "t_mapping(t_uint256,t_address)": {
        "encoding": "mapping",
        "key": "t_uint256",
        "label": "mapping(uint256 => address)",
        "numberOfBytes": "32",
        "value": "t_address"
      },
      "t_mapping(t_uint256,t_string_storage)": {
        "encoding": "mapping",
        "key": "t_uint256",
        "label": "mapping(uint256 => string)",
        "numberOfBytes": "32",
        "value": "t_string_storage"
      },
      "t_string_storage": {
        "encoding": "bytes",
        "label": "string",
        "numberOfBytes": "32"
      },
      "t_uint256": {
        "encoding": "inplace",
        "label": "uint256",
        "numberOfBytes": "32"
      }
    }
  }
}